{
  "transactions": [
    {
      "hash": "0x3fd79198597edd330feaada3e9f2fe9348620072af348d75034749fe38228e17",
      "transactionType": "CREATE",
      "contractName": "AuditManager",
      "contractAddress": "0xa6a84793b52a82c0a3c71a08303c879619790bf7",
      "function": null,
      "arguments": [
        "0x878c92FD89d8E0B93Dc0a3c907A2adc7577e39c5"
      ],
      "transaction": {
        "from": "0xdc233b5368d39fed2eb99ee4dc225882d35ff4b6",
        "gas": "0x8c6aa",
        "value": "0x0",
        "input": "0x6080604052348015600f57600080fd5b506040516106cd3803806106cd833981016040819052602c91605e565b60008054336001600160a01b031991821617909155600380549091166001600160a01b0392909216919091179055608c565b600060208284031215606f57600080fd5b81516001600160a01b0381168114608557600080fd5b9392505050565b6106328061009b6000396000f3fe608060405234801561001057600080fd5b50600436106100625760003560e01c80636e91f721146100675780639e3ddafc146100af578063d5026230146100c2578063e2788f4914610103578063f851a44014610118578063fc9564d01461012b575b600080fd5b610091610075366004610335565b60016020526000908152604090205467ffffffffffffffff1681565b60405167ffffffffffffffff90911681526020015b60405180910390f35b6100916100bd366004610366565b610155565b6100eb6100d0366004610335565b6002602052600090815260409020546001600160a01b031681565b6040516001600160a01b0390911681526020016100a6565b6101166101113660046103a8565b610204565b005b6000546100eb906001600160a01b031681565b610091610139366004610335565b60009081526001602052604090205467ffffffffffffffff1690565b65626f756e747960d01b600090815260026020527f557251618206bcc7094b685c9b12776808503046e78f6ab0d209c7860e5042b05460405163278f76bf60e21b81526001600160a01b0385811660048301526024820185905290911690639e3ddafc90604401602060405180830381865afa1580156101d9573d6000803e3d6000fd5b505050506040513d601f19601f820116820180604052508101906101fd91906103e8565b9392505050565b6000546001600160a01b031633146102625760405162461bcd60e51b815260206004820152601c60248201527f4175646974436f6e74726163742f6e6f742d617574686f72697a656400000000604482015260640160405180910390fd5b60008281526001602052604090819020805467ffffffffffffffff191667ffffffffffffffff84169081179091556003549151638d1be87560e01b815260048101919091526001600160a01b0390911690638d1be87590602401600060405180830381865afa1580156102d9573d6000803e3d6000fd5b505050506040513d6000823e601f3d908101601f191682016040526103019190810190610525565b6080015160009283526002602052604090922080546001600160a01b0319166001600160a01b039093169290921790915550565b60006020828403121561034757600080fd5b5035919050565b6001600160a01b038116811461036357600080fd5b50565b6000806040838503121561037957600080fd5b82356103848161034e565b946020939093013593505050565b67ffffffffffffffff8116811461036357600080fd5b600080604083850312156103bb57600080fd5b8235915060208301356103cd81610392565b809150509250929050565b80516103e381610392565b919050565b6000602082840312156103fa57600080fd5b81516101fd81610392565b634e487b7160e01b600052604160045260246000fd5b60405160e0810167ffffffffffffffff8111828210171561043e5761043e610405565b60405290565b604051601f8201601f1916810167ffffffffffffffff8111828210171561046d5761046d610405565b604052919050565b80516103e38161034e565b805180151581146103e357600080fd5b8051600481106103e357600080fd5b600082601f8301126104b057600080fd5b815167ffffffffffffffff8111156104ca576104ca610405565b6104dd601f8201601f1916602001610444565b8181528460208386010111156104f257600080fd5b60005b82811015610511576020818601810151838301820152016104f5565b506000918101602001919091529392505050565b60006020828403121561053757600080fd5b815167ffffffffffffffff81111561054e57600080fd5b820160e0818503121561056057600080fd5b61056861041b565b61057182610475565b815261057f60208301610480565b602082015261059060408301610490565b60408201526105a1606083016103d8565b60608201526105b260808301610475565b60808201526105c360a083016103d8565b60a082015260c082015167ffffffffffffffff8111156105e257600080fd5b6105ee8682850161049f565b60c08301525094935050505056fea2646970667358221220e070c9f25ebff3b664d123bb74bb21d80c5afc8e0c96e0f303f2efbf87f1f3e364736f6c634300081c0033000000000000000000000000878c92fd89d8e0b93dc0a3c907a2adc7577e39c5",
        "nonce": "0x61",
        "chainId": "0xaa36a7"
      },
      "additionalContracts": [],
      "isFixedGasLimit": false
    },
    {
      "hash": "0x0ba93b7f7198fcaf8b5d0b27adeddd4807b12c047a2d722066ff2455f47cf10c",
      "transactionType": "CREATE",
      "contractName": null,
      "contractAddress": "0xa13650b69fd79249eb1efd950f1ae6b20c99ae6a",
      "function": null,
      "arguments": null,
      "transaction": {
        "from": "0xdc233b5368d39fed2eb99ee4dc225882d35ff4b6",
        "gas": "0x17efdd",
        "value": "0x0",
        "input": "0x60c060405234801561001057600080fd5b5060405161151b38038061151b83398101604081905261002f91610099565b33600090815260016020819052604080832080546001600160401b031990811684179091556001600160a01b0394851680855291909320805490931690911790915560a052166080526100cc565b80516001600160a01b038116811461009457600080fd5b919050565b600080604083850312156100ac57600080fd5b6100b58361007d565b91506100c36020840161007d565b90509250929050565b60805160a0516114076101146000396000818161032d015281816104dc0152610b0f015260008181610167015281816103c20152818161092c0152610a3901526114076000f3fe6080604052600436106100f35760003560e01c806390ffbd531161008a578063e1dadf3b11610059578063e1dadf3b1461031b578063e33361f41461034f578063e830b5c714610362578063f8895cc81461038257600080fd5b806390ffbd53146102855780639c52a7f1146102a55780639e3ddafc146102c5578063bf353dbb146102e557600080fd5b80634466507a116100c65780634466507a146101b657806362eab963146101d657806365fae35e1461022f578063807f54ea1461024f57600080fd5b806306fdde03146100f85780630e6f472f1461012857806317095529146101555780633398b4ed146101a1575b600080fd5b34801561010457600080fd5b5061011565626f756e747960d01b81565b6040519081526020015b60405180910390f35b34801561013457600080fd5b50610115610143366004610d5f565b60036020526000908152604090205481565b34801561016157600080fd5b506101897f000000000000000000000000000000000000000000000000000000000000000081565b6040516001600160a01b03909116815260200161011f565b6101b46101af366004610de0565b6103a2565b005b3480156101c257600080fd5b506101b46101d1366004610e5b565b61065b565b3480156101e257600080fd5b506102176101f1366004610ef2565b60026020908152600092835260408084209091529082529020546001600160401b031681565b6040516001600160401b03909116815260200161011f565b34801561023b57600080fd5b506101b461024a366004610f22565b61069c565b34801561025b57600080fd5b5061011561026a366004610d5f565b6001600160401b031660009081526003602052604090205490565b34801561029157600080fd5b506101b46102a0366004610f3f565b610703565b3480156102b157600080fd5b506101b46102c0366004610f22565b610878565b3480156102d157600080fd5b506102176102e0366004610f80565b6108d9565b3480156102f157600080fd5b50610217610300366004610f22565b6001602052600090815260409020546001600160401b031681565b34801561032757600080fd5b506101897f000000000000000000000000000000000000000000000000000000000000000081565b6101b461035d366004610de0565b61090c565b34801561036e57600080fd5b506101b461037d366004610e5b565b6109e0565b34801561038e57600080fd5b50600054610217906001600160401b031681565b604051630fc9564d60e41b815265626f756e747960d01b600482015284907f00000000000000000000000000000000000000000000000000000000000000006001600160a01b03169063fc9564d090602401602060405180830381865afa158015610411573d6000803e3d6000fd5b505050506040513d601f19601f820116820180604052508101906104359190610fbc565b6001600160401b0316816001600160401b03161461046e5760405162461bcd60e51b815260040161046590610fd9565b60405180910390fd5b34806104bc5760405162461bcd60e51b815260206004820152601d60248201527f426f756e7479486f6f6b2f7a65726f2d626f756e74792d616d6f756e740000006044820152606401610465565b60405162c44a5160e71b81526001600160401b03861660048201526000907f00000000000000000000000000000000000000000000000000000000000000006001600160a01b031690636225288090602401600060405180830381865afa15801561052b573d6000803e3d6000fd5b505050506040513d6000823e601f3d908101601f1916820160405261055391908101906111e5565b9050600080826101200151806020019051810190610571919061130c565b5060008181526002602090815260408083206001600160a01b038616845290915290205491935091506001600160401b0316156106055760405162461bcd60e51b815260206004820152602c60248201527f426f756e7479486f6f6b2f626f756e74792d616c72656164792d65786973742d60448201526b199bdc8b58dbdb9d1c9858dd60a21b6064820152608401610465565b60009081526002602090815260408083206001600160a01b03909416835292815282822080546001600160401b03909a1667ffffffffffffffff19909a168a179055978152600390975290952055505050505050565b60405162461bcd60e51b8152602060048201526016602482015275109bdd5b9d1e521bdbdacbdd5b9cdd5c1c1bdc9d195960521b6044820152606401610465565b336000908152600160208190526040909120546001600160401b0316146106d55760405162461bcd60e51b815260040161046590611379565b6001600160a01b03166000908152600160208190526040909120805467ffffffffffffffff19169091179055565b336000908152600160208190526040909120546001600160401b03161461073c5760405162461bcd60e51b815260040161046590611379565b6001600160401b0383166000908152600360205260409020548111156107a45760405162461bcd60e51b815260206004820152601f60248201527f426f756e7479486f6f6b2f696e73756666696369656e742d62616c616e6365006044820152606401610465565b6001600160401b038316600090815260036020526040812080548392906107cc9084906113b0565b90915550506040516000906001600160a01b0384169083908381818185875af1925050503d806000811461081c576040519150601f19603f3d011682016040523d82523d6000602084013e610821565b606091505b50509050806108725760405162461bcd60e51b815260206004820152601a60248201527f426f756e7479486f6f6b2f7472616e736665722d6661696c65640000000000006044820152606401610465565b50505050565b336000908152600160208190526040909120546001600160401b0316146108b15760405162461bcd60e51b815260040161046590611379565b6001600160a01b03166000908152600160205260409020805467ffffffffffffffff19169055565b60008181526002602090815260408083206001600160a01b03861684529091529020546001600160401b03165b92915050565b604051630fc9564d60e41b815265626f756e747960d01b600482015284907f00000000000000000000000000000000000000000000000000000000000000006001600160a01b03169063fc9564d090602401602060405180830381865afa15801561097b573d6000803e3d6000fd5b505050506040513d601f19601f8201168201806040525081019061099f9190610fbc565b6001600160401b0316816001600160401b0316146109cf5760405162461bcd60e51b815260040161046590610fd9565b6109d884610aef565b505050505050565b336000908152600160208190526040909120546001600160401b031614610a195760405162461bcd60e51b815260040161046590611379565b604051630fc9564d60e41b815265626f756e747960d01b600482015286907f00000000000000000000000000000000000000000000000000000000000000006001600160a01b03169063fc9564d090602401602060405180830381865afa158015610a88573d6000803e3d6000fd5b505050506040513d601f19601f82011682018060405250810190610aac9190610fbc565b6001600160401b0316816001600160401b031614610adc5760405162461bcd60e51b815260040161046590610fd9565b610ae586610aef565b5050505050505050565b60405162c44a5160e71b81526001600160401b03821660048201526000907f00000000000000000000000000000000000000000000000000000000000000006001600160a01b031690636225288090602401600060405180830381865afa158015610b5e573d6000803e3d6000fd5b505050506040513d6000823e601f3d908101601f19168201604052610b8691908101906111e5565b9050600080826101200151806020019051810190610ba4919061130c565b5060008181526002602090815260408083206001600160a01b038616845290915290205491935091506001600160401b03858116911614610c385760405162461bcd60e51b815260206004820152602860248201527f426f756e7479486f6f6b2f6174746573746174696f6e2d69642d646f65732d6e6044820152670dee85adac2e8c6d60c31b6064820152608401610465565b6001600160401b03841660009081526003602052604080822054608086015191519092916001600160a01b03169083908381818185875af1925050503d8060008114610ca0576040519150601f19603f3d011682016040523d82523d6000602084013e610ca5565b606091505b5050905080610cf65760405162461bcd60e51b815260206004820152601a60248201527f426f756e7479486f6f6b2f7472616e736665722d6661696c65640000000000006044820152606401610465565b505060009081526002602090815260408083206001600160a01b039094168352928152828220805467ffffffffffffffff191690556001600160401b03949094168152600390935282209190915550565b6001600160401b0381168114610d5c57600080fd5b50565b600060208284031215610d7157600080fd5b8135610d7c81610d47565b9392505050565b6001600160a01b0381168114610d5c57600080fd5b60008083601f840112610daa57600080fd5b5081356001600160401b03811115610dc157600080fd5b602083019150836020828501011115610dd957600080fd5b9250929050565b600080600080600060808688031215610df857600080fd5b8535610e0381610d83565b94506020860135610e1381610d47565b93506040860135610e2381610d47565b925060608601356001600160401b03811115610e3e57600080fd5b610e4a88828901610d98565b969995985093965092949392505050565b600080600080600080600060c0888a031215610e7657600080fd5b8735610e8181610d83565b96506020880135610e9181610d47565b95506040880135610ea181610d47565b94506060880135610eb181610d83565b93506080880135925060a08801356001600160401b03811115610ed357600080fd5b610edf8a828b01610d98565b989b979a50959850939692959293505050565b60008060408385031215610f0557600080fd5b823591506020830135610f1781610d83565b809150509250929050565b600060208284031215610f3457600080fd5b8135610d7c81610d83565b600080600060608486031215610f5457600080fd5b8335610f5f81610d47565b92506020840135610f6f81610d83565b929592945050506040919091013590565b60008060408385031215610f9357600080fd5b8235610f9e81610d83565b946020939093013593505050565b8051610fb781610d47565b919050565b600060208284031215610fce57600080fd5b8151610d7c81610d47565b6020808252601a908201527f426f756e7479486f6f6b2f77726f6e672d736368656d612d6964000000000000604082015260600190565b634e487b7160e01b600052604160045260246000fd5b60405161014081016001600160401b038111828210171561104957611049611010565b60405290565b604051601f8201601f191681016001600160401b038111828210171561107757611077611010565b604052919050565b8051610fb781610d83565b805160048110610fb757600080fd5b80518015158114610fb757600080fd5b6000806001600160401b038411156110c3576110c3611010565b50601f8301601f19166020016110d88161104f565b9150508281528383830111156110ed57600080fd5b60005b8381101561110e5780830151602082840101526020810190506110f0565b506000602084830101529392505050565b600082601f83011261113057600080fd5b610d7c838351602085016110a9565b600082601f83011261115057600080fd5b81516001600160401b0381111561116957611169611010565b8060051b6111796020820161104f565b9182526020818501810192908101908684111561119557600080fd5b6020860192505b838310156111db5782516001600160401b038111156111ba57600080fd5b6111c9886020838a010161111f565b8352506020928301929091019061119c565b9695505050505050565b6000602082840312156111f757600080fd5b81516001600160401b0381111561120d57600080fd5b8201610140818503121561122057600080fd5b611228611026565b61123182610fac565b815261123f60208301610fac565b602082015261125060408301610fac565b604082015261126160608301610fac565b60608201526112726080830161107f565b608082015261128360a08301610fac565b60a082015261129460c0830161108a565b60c08201526112a560e08301611099565b60e08201526101008201516001600160401b038111156112c457600080fd5b6112d08682850161113f565b610100830152506101208201516001600160401b038111156112f157600080fd5b6112fd8682850161111f565b61012083015250949350505050565b60008060006060848603121561132157600080fd5b835161132c81610d83565b6020850151604086015191945092506001600160401b0381111561134f57600080fd5b8401601f8101861361136057600080fd5b61136f868251602084016110a9565b9150509250925092565b60208082526019908201527f426f756e7479486f6f6b2f6e6f742d617574686f72697a656400000000000000604082015260600190565b8181038181111561090657634e487b7160e01b600052601160045260246000fdfea2646970667358221220373c230245772d902df1cadbde31bc102002388c9c8e550d9ffa9a18c04a55fd64736f6c634300081c0033000000000000000000000000a6a84793b52a82c0a3c71a08303c879619790bf7000000000000000000000000878c92fd89d8e0b93dc0a3c907a2adc7577e39c5",
        "nonce": "0x62",
        "chainId": "0xaa36a7"
      },
      "additionalContracts": [],
      "isFixedGasLimit": false
    },
    {
      "hash": "0x96b5e9a62c9d22fbee9e6187bd3bf361702ca9d99476704a0afc6402deed7127",
      "transactionType": "CALL",
      "contractName": null,
      "contractAddress": "0x878c92fd89d8e0b93dc0a3c907a2adc7577e39c5",
      "function": "register((address,bool,uint8,uint64,address,uint64,string),bytes)",
      "arguments": [
        "(0xdC233b5368d39FED2EB99EE4dc225882D35ff4B6, true, 0, 0, 0xa13650b69FD79249eB1efD950f1aE6B20c99ae6A, 1731790980, [{\\\"name\\\":\\\"contractAddress\\\",\\\"type\\\":\\\"address\\\"},{\\\"name\\\":\\\"chainId\\\",\\\"type\\\":\\\"uint256\\\"},{\\\"name\\\":\\\"title\\\",\\\"type\\\":\\\"string\\\"}])",
        "0x"
      ],
      "transaction": {
        "from": "0xdc233b5368d39fed2eb99ee4dc225882d35ff4b6",
        "to": "0x878c92fd89d8e0b93dc0a3c907a2adc7577e39c5",
        "gas": "0x47210",
        "value": "0x0",
        "input": "0xe117a861000000000000000000000000000000000000000000000000000000000000004000000000000000000000000000000000000000000000000000000000000001c0000000000000000000000000dc233b5368d39fed2eb99ee4dc225882d35ff4b6000000000000000000000000000000000000000000000000000000000000000100000000000000000000000000000000000000000000000000000000000000000000000000000000000000000000000000000000000000000000000000000000000000000000000000000000a13650b69fd79249eb1efd950f1ae6b20c99ae6a000000000000000000000000000000000000000000000000000000006739088400000000000000000000000000000000000000000000000000000000000000e000000000000000000000000000000000000000000000000000000000000000725b7b226e616d65223a22636f6e747261637441646472657373222c2274797065223a2261646472657373227d2c7b226e616d65223a22636861696e4964222c2274797065223a2275696e74323536227d2c7b226e616d65223a227469746c65222c2274797065223a22737472696e67227d5d00000000000000000000000000000000000000000000000000000000000000000000000000000000000000000000",
        "nonce": "0x63",
        "chainId": "0xaa36a7"
      },
      "additionalContracts": [],
      "isFixedGasLimit": false
    },
    {
      "hash": "0x4d9943699b56b1df68eeee413d18ee424f25a906e06b495d3aa0d7cd8d86f465",
      "transactionType": "CREATE",
      "contractName": "ReportHook",
      "contractAddress": "0xd73d431d77c3583a346462028b398c6bd6513c0b",
      "function": null,
      "arguments": [
        "0xa6a84793b52A82C0A3C71A08303c879619790bF7",
        "0x878c92FD89d8E0B93Dc0a3c907A2adc7577e39c5"
      ],
      "transaction": {
        "from": "0xdc233b5368d39fed2eb99ee4dc225882d35ff4b6",
        "gas": "0xe9a18",
        "value": "0x0",
        "input": "0x60c060405234801561001057600080fd5b50604051610cdd380380610cdd83398101604081905261002f91610076565b600080546001600160a01b0319166001600160a01b0392831690811790915560a052166080526100a9565b80516001600160a01b038116811461007157600080fd5b919050565b6000806040838503121561008957600080fd5b6100928361005a565b91506100a06020840161005a565b90509250929050565b60805160a051610bed6100f06000396000818161014e015281816104e301526105e801526000818160cd01528181610283015281816103dd01526106780152610bed6000f3fe6080604052600436106100865760003560e01c8063e1dadf3b11610059578063e1dadf3b1461013c578063e33361f414610170578063e830b5c714610185578063f851a440146101a9578063f8895cc8146101c957600080fd5b806306fdde031461008b57806317095529146100bb5780633398b4ed146101075780634466507a1461011c575b600080fd5b34801561009757600080fd5b506100a8651c995c1bdc9d60d21b81565b6040519081526020015b60405180910390f35b3480156100c757600080fd5b506100ef7f000000000000000000000000000000000000000000000000000000000000000081565b6040516001600160a01b0390911681526020016100b2565b61011a61011536600461078d565b610208565b005b34801561012857600080fd5b5061011a610137366004610808565b610367565b34801561014857600080fd5b506100ef7f000000000000000000000000000000000000000000000000000000000000000081565b61011a61017e36600461078d565b5050505050565b34801561019157600080fd5b5061011a6101a0366004610808565b50505050505050565b3480156101b557600080fd5b506000546100ef906001600160a01b031681565b3480156101d557600080fd5b506000546101f090600160a01b90046001600160401b031681565b6040516001600160401b0390911681526020016100b2565b6000546001600160a01b031633146102635760405162461bcd60e51b815260206004820152601960248201527814995c1bdc9d121bdbdacbdb9bdd0b585d5d1a1bdc9a5e9959603a1b60448201526064015b60405180910390fd5b604051630fc9564d60e41b8152651c995c1bdc9d60d21b600482015284907f00000000000000000000000000000000000000000000000000000000000000006001600160a01b03169063fc9564d090602401602060405180830381865afa1580156102d2573d6000803e3d6000fd5b505050506040513d601f19601f820116820180604052508101906102f691906108af565b6001600160401b0316816001600160401b0316146103565760405162461bcd60e51b815260206004820152601a60248201527f5265706f7274486f6f6b2f77726f6e672d736368656d612d6964000000000000604482015260640161025a565b61035f846104c3565b505050505050565b6000546001600160a01b031633146103bd5760405162461bcd60e51b815260206004820152601960248201527814995c1bdc9d121bdbdacbdb9bdd0b585d5d1a1bdc9a5e9959603a1b604482015260640161025a565b604051630fc9564d60e41b8152651c995c1bdc9d60d21b600482015286907f00000000000000000000000000000000000000000000000000000000000000006001600160a01b03169063fc9564d090602401602060405180830381865afa15801561042c573d6000803e3d6000fd5b505050506040513d601f19601f8201168201806040525081019061045091906108af565b6001600160401b0316816001600160401b0316146104b05760405162461bcd60e51b815260206004820152601a60248201527f5265706f7274486f6f6b2f77726f6e672d736368656d612d6964000000000000604482015260640161025a565b6104b9866104c3565b5050505050505050565b60405162c44a5160e71b81526001600160401b03821660048201526000907f00000000000000000000000000000000000000000000000000000000000000006001600160a01b031690636225288090602401600060405180830381865afa158015610532573d6000803e3d6000fd5b505050506040513d6000823e601f3d908101601f1916820160405261055a9190810190610a90565b905061056981602001516105be565b15156001146105ba5760405162461bcd60e51b815260206004820152601b60248201527f5265706f7274486f6f6b2f626f756e74792d6e6f742d65786973740000000000604482015260640161025a565b5050565b60405162c44a5160e71b81526001600160401b038216600482015260009081906001600160a01b037f00000000000000000000000000000000000000000000000000000000000000001690636225288090602401600060405180830381865afa15801561062f573d6000803e3d6000fd5b505050506040513d6000823e601f3d908101601f191682016040526106579190810190610a90565b604051630fc9564d60e41b815265626f756e747960d01b60048201529091507f00000000000000000000000000000000000000000000000000000000000000006001600160a01b03169063fc9564d090602401602060405180830381865afa1580156106c7573d6000803e3d6000fd5b505050506040513d601f19601f820116820180604052508101906106eb91906108af565b6001600160401b031681600001516001600160401b031614801561071157508060e00151155b9392505050565b6001600160a01b038116811461072d57600080fd5b50565b6001600160401b038116811461072d57600080fd5b60008083601f84011261075757600080fd5b5081356001600160401b0381111561076e57600080fd5b60208301915083602082850101111561078657600080fd5b9250929050565b6000806000806000608086880312156107a557600080fd5b85356107b081610718565b945060208601356107c081610730565b935060408601356107d081610730565b925060608601356001600160401b038111156107eb57600080fd5b6107f788828901610745565b969995985093965092949392505050565b600080600080600080600060c0888a03121561082357600080fd5b873561082e81610718565b9650602088013561083e81610730565b9550604088013561084e81610730565b9450606088013561085e81610718565b93506080880135925060a08801356001600160401b0381111561088057600080fd5b61088c8a828b01610745565b989b979a50959850939692959293505050565b80516108aa81610730565b919050565b6000602082840312156108c157600080fd5b815161071181610730565b634e487b7160e01b600052604160045260246000fd5b60405161014081016001600160401b0381118282101715610905576109056108cc565b60405290565b604051601f8201601f191681016001600160401b0381118282101715610933576109336108cc565b604052919050565b80516108aa81610718565b8051600481106108aa57600080fd5b805180151581146108aa57600080fd5b600082601f83011261097657600080fd5b81516001600160401b0381111561098f5761098f6108cc565b6109a2601f8201601f191660200161090b565b8181528460208386010111156109b757600080fd5b60005b828110156109d6576020818601810151838301820152016109ba565b506000918101602001919091529392505050565b600082601f8301126109fb57600080fd5b81516001600160401b03811115610a1457610a146108cc565b8060051b610a246020820161090b565b91825260208185018101929081019086841115610a4057600080fd5b6020860192505b83831015610a865782516001600160401b03811115610a6557600080fd5b610a74886020838a0101610965565b83525060209283019290910190610a47565b9695505050505050565b600060208284031215610aa257600080fd5b81516001600160401b03811115610ab857600080fd5b82016101408185031215610acb57600080fd5b610ad36108e2565b610adc8261089f565b8152610aea6020830161089f565b6020820152610afb6040830161089f565b6040820152610b0c6060830161089f565b6060820152610b1d6080830161093b565b6080820152610b2e60a0830161089f565b60a0820152610b3f60c08301610946565b60c0820152610b5060e08301610955565b60e08201526101008201516001600160401b03811115610b6f57600080fd5b610b7b868285016109ea565b610100830152506101208201516001600160401b03811115610b9c57600080fd5b610ba886828501610965565b6101208301525094935050505056fea2646970667358221220436d529db9d73b0ca195fd588de7d80ccf1ae2c1b1260318f1a813d8143eceed64736f6c634300081c0033000000000000000000000000a6a84793b52a82c0a3c71a08303c879619790bf7000000000000000000000000878c92fd89d8e0b93dc0a3c907a2adc7577e39c5",
        "nonce": "0x64",
        "chainId": "0xaa36a7"
      },
      "additionalContracts": [],
      "isFixedGasLimit": false
    },
    {
      "hash": "0x3ecbf726c6c8aa19310f139282ddda51e3c4eea99985501760345f5446195717",
      "transactionType": "CALL",
      "contractName": null,
      "contractAddress": "0x878c92fd89d8e0b93dc0a3c907a2adc7577e39c5",
      "function": "register((address,bool,uint8,uint64,address,uint64,string),bytes)",
      "arguments": [
        "(0xdC233b5368d39FED2EB99EE4dc225882D35ff4B6, true, 0, 0, 0xD73d431D77C3583a346462028b398C6BD6513c0B, 1731790980, [{\\\"name\\\":\\\"finding\\\",\\\"type\\\":\\\"string\\\"}])",
        "0x"
      ],
      "transaction": {
        "from": "0xdc233b5368d39fed2eb99ee4dc225882d35ff4b6",
        "to": "0x878c92fd89d8e0b93dc0a3c907a2adc7577e39c5",
        "gas": "0x33ce0",
        "value": "0x0",
        "input": "0xe117a86100000000000000000000000000000000000000000000000000000000000000400000000000000000000000000000000000000000000000000000000000000180000000000000000000000000dc233b5368d39fed2eb99ee4dc225882d35ff4b6000000000000000000000000000000000000000000000000000000000000000100000000000000000000000000000000000000000000000000000000000000000000000000000000000000000000000000000000000000000000000000000000000000000000000000000000d73d431d77c3583a346462028b398c6bd6513c0b000000000000000000000000000000000000000000000000000000006739088400000000000000000000000000000000000000000000000000000000000000e000000000000000000000000000000000000000000000000000000000000000245b7b226e616d65223a2266696e64696e67222c2274797065223a22737472696e67227d5d000000000000000000000000000000000000000000000000000000000000000000000000000000000000000000000000000000000000000000000000",
        "nonce": "0x65",
        "chainId": "0xaa36a7"
      },
      "additionalContracts": [],
      "isFixedGasLimit": false
    },
    {
      "hash": "0x52c293e5243242e64f39836ffef5b883c882425c6e407a25e6f210a537e6fb10",
      "transactionType": "CREATE",
      "contractName": "ReportStatusHook",
      "contractAddress": "0x837fa2441e35c0ae55b61f6b456c7670194d115a",
      "function": null,
      "arguments": [
        "0xa6a84793b52A82C0A3C71A08303c879619790bF7",
        "0x878c92FD89d8E0B93Dc0a3c907A2adc7577e39c5"
      ],
      "transaction": {
        "from": "0xdc233b5368d39fed2eb99ee4dc225882d35ff4b6",
        "gas": "0x175a9e",
        "value": "0x0",
        "input": "0x60c060405234801561001057600080fd5b5060405161150038038061150083398101604081905261002f91610076565b600080546001600160a01b0319166001600160a01b0392831690811790915560a052166080526100a9565b80516001600160a01b038116811461007157600080fd5b919050565b6000806040838503121561008957600080fd5b6100928361005a565b91506100a06020840161005a565b90509250929050565b60805160a0516113ed610113600039600081816101bb015281816106b8015281816107f3015281816109e30152610ca301526000818160e9015281816102e6015281816103ea015281816104f0015281816105ec0152818161088b0152610b8c01526113ed6000f3fe60806040526004361061009c5760003560e01c8063e1dadf3b11610064578063e1dadf3b146101a9578063e33361f4146101dd578063e830b5c7146101f0578063f30b121e14610210578063f851a44014610246578063f8895cc81461026657600080fd5b806306fdde03146100a157806317095529146100d75780633398b4ed146101235780634466507a14610138578063d2da3b0e14610158575b600080fd5b3480156100ad57600080fd5b506100c46b7265706f727453746174757360a01b81565b6040519081526020015b60405180910390f35b3480156100e357600080fd5b5061010b7f000000000000000000000000000000000000000000000000000000000000000081565b6040516001600160a01b0390911681526020016100ce565b610136610131366004610ec7565b61028d565b005b34801561014457600080fd5b50610136610153366004610f42565b61039a565b34801561016457600080fd5b50610191610173366004610fd9565b6001600160401b039081166000908152600160205260409020541690565b6040516001600160401b0390911681526020016100ce565b3480156101b557600080fd5b5061010b7f000000000000000000000000000000000000000000000000000000000000000081565b6101366101eb366004610ec7565b6104a0565b3480156101fc57600080fd5b5061013661020b366004610f42565b61059c565b34801561021c57600080fd5b5061019161022b366004610fd9565b6001602052600090815260409020546001600160401b031681565b34801561025257600080fd5b5060005461010b906001600160a01b031681565b34801561027257600080fd5b5060005461019190600160a01b90046001600160401b031681565b6000546001600160a01b031633146102c05760405162461bcd60e51b81526004016102b790610ffd565b60405180910390fd5b604051630fc9564d60e41b81526b7265706f727453746174757360a01b600482015284907f00000000000000000000000000000000000000000000000000000000000000006001600160a01b03169063fc9564d090602401602060405180830381865afa158015610335573d6000803e3d6000fd5b505050506040513d601f19601f820116820180604052508101906103599190611044565b6001600160401b0316816001600160401b0316146103895760405162461bcd60e51b81526004016102b790611061565b61039284610698565b505050505050565b6000546001600160a01b031633146103c45760405162461bcd60e51b81526004016102b790610ffd565b604051630fc9564d60e41b81526b7265706f727453746174757360a01b600482015286907f00000000000000000000000000000000000000000000000000000000000000006001600160a01b03169063fc9564d090602401602060405180830381865afa158015610439573d6000803e3d6000fd5b505050506040513d601f19601f8201168201806040525081019061045d9190611044565b6001600160401b0316816001600160401b03161461048d5760405162461bcd60e51b81526004016102b790611061565b61049686610698565b5050505050505050565b6000546001600160a01b031633146104ca5760405162461bcd60e51b81526004016102b790610ffd565b604051630fc9564d60e41b81526b7265706f727453746174757360a01b600482015284907f00000000000000000000000000000000000000000000000000000000000000006001600160a01b03169063fc9564d090602401602060405180830381865afa15801561053f573d6000803e3d6000fd5b505050506040513d601f19601f820116820180604052508101906105639190611044565b6001600160401b0316816001600160401b0316146105935760405162461bcd60e51b81526004016102b790611061565b61039284610c83565b6000546001600160a01b031633146105c65760405162461bcd60e51b81526004016102b790610ffd565b604051630fc9564d60e41b81526b7265706f727453746174757360a01b600482015286907f00000000000000000000000000000000000000000000000000000000000000006001600160a01b03169063fc9564d090602401602060405180830381865afa15801561063b573d6000803e3d6000fd5b505050506040513d601f19601f8201168201806040525081019061065f9190611044565b6001600160401b0316816001600160401b03161461068f5760405162461bcd60e51b81526004016102b790611061565b61049686610c83565b60405162c44a5160e71b81526001600160401b03821660048201526000907f00000000000000000000000000000000000000000000000000000000000000006001600160a01b031690636225288090602401600060405180830381865afa158015610707573d6000803e3d6000fd5b505050506040513d6000823e601f3d908101601f1916820160405261072f919081019061125a565b905060008160200151905060008261012001518060200190518101906107559190611381565b6001600160401b0380841660009081526001602052604090205491925016156107d35760405162461bcd60e51b815260206004820152602a60248201527f5265706f7274537461747573486f6f6b2f7265706f72742d616c72656164792d6044820152696861732d73746174757360b01b60648201526084016102b7565b60405162c44a5160e71b81526001600160401b03831660048201526000907f00000000000000000000000000000000000000000000000000000000000000006001600160a01b031690636225288090602401600060405180830381865afa158015610842573d6000803e3d6000fd5b505050506040513d6000823e601f3d908101601f1916820160405261086a919081019061125a565b604051630fc9564d60e41b8152651c995c1bdc9d60d21b60048201529091507f00000000000000000000000000000000000000000000000000000000000000006001600160a01b03169063fc9564d090602401602060405180830381865afa1580156108da573d6000803e3d6000fd5b505050506040513d601f19601f820116820180604052508101906108fe9190611044565b6001600160401b031681600001516001600160401b03161461096c5760405162461bcd60e51b815260206004820152602160248201527f5265706f7274537461747573486f6f6b2f7265706f72742d6e6f742d657869736044820152601d60fa1b60648201526084016102b7565b8060e00151156109be5760405162461bcd60e51b815260206004820152601f60248201527f5265706f7274537461747573486f6f6b2f7265706f72742d7265766f6b65640060448201526064016102b7565b602081015160405162c44a5160e71b81526001600160401b03821660048201526000907f00000000000000000000000000000000000000000000000000000000000000006001600160a01b031690636225288090602401600060405180830381865afa158015610a32573d6000803e3d6000fd5b505050506040513d6000823e601f3d908101601f19168201604052610a5a919081019061125a565b90508060e0015115610aba5760405162461bcd60e51b815260206004820152602360248201527f5265706f7274537461747573486f6f6b2f626f756e74792d696e6163746976616044820152621d195960ea1b60648201526084016102b7565b80608001516001600160a01b031686608001516001600160a01b031614610b365760405162461bcd60e51b815260206004820152602a60248201527f5265706f7274537461747573486f6f6b2f756e617574686f72697a65642d626f6044820152693ab73a3c96b7bbb732b960b11b60648201526084016102b7565b6001600160401b038581166000908152600160205260409020805467ffffffffffffffff19169189169190911790558315610c7a57604051630d50262360e41b815265626f756e747960d01b60048201526000907f00000000000000000000000000000000000000000000000000000000000000006001600160a01b03169063d502623090602401602060405180830381865afa158015610bdb573d6000803e3d6000fd5b505050506040513d601f19601f82011682018060405250810190610bff919061139a565b60808501516040516390ffbd5360e01b81526001600160401b03861660048201526001600160a01b039182166024820152604481018890529192508216906390ffbd5390606401600060405180830381600087803b158015610c6057600080fd5b505af1158015610c74573d6000803e3d6000fd5b50505050505b50505050505050565b60405162c44a5160e71b81526001600160401b03821660048201526000907f00000000000000000000000000000000000000000000000000000000000000006001600160a01b031690636225288090602401600060405180830381865afa158015610cf2573d6000803e3d6000fd5b505050506040513d6000823e601f3d908101601f19168201604052610d1a919081019061125a565b90506000816101200151806020019051810190610d379190611381565b6020808401516001600160401b03908116600090815260019092526040822054929350919091169003610dc35760405162461bcd60e51b815260206004820152602e60248201527f5265706f7274537461747573486f6f6b2f6174746573746174696f6e2d69642d60448201526d0c8decae65adcdee85adac2e8c6d60931b60648201526084016102b7565b8015610e225760405162461bcd60e51b815260206004820152602860248201527f5265706f7274537461747573486f6f6b2f7265706f72742d616c72656164792d6044820152671c995dd85c99195960c21b60648201526084016102b7565b506020908101516001600160401b03166000908152600190915260409020805467ffffffffffffffff1916905550565b6001600160a01b0381168114610e6757600080fd5b50565b6001600160401b0381168114610e6757600080fd5b60008083601f840112610e9157600080fd5b5081356001600160401b03811115610ea857600080fd5b602083019150836020828501011115610ec057600080fd5b9250929050565b600080600080600060808688031215610edf57600080fd5b8535610eea81610e52565b94506020860135610efa81610e6a565b93506040860135610f0a81610e6a565b925060608601356001600160401b03811115610f2557600080fd5b610f3188828901610e7f565b969995985093965092949392505050565b600080600080600080600060c0888a031215610f5d57600080fd5b8735610f6881610e52565b96506020880135610f7881610e6a565b95506040880135610f8881610e6a565b94506060880135610f9881610e52565b93506080880135925060a08801356001600160401b03811115610fba57600080fd5b610fc68a828b01610e7f565b989b979a50959850939692959293505050565b600060208284031215610feb57600080fd5b8135610ff681610e6a565b9392505050565b6020808252601f908201527f5265706f7274537461747573486f6f6b2f6e6f742d617574686f72697a656400604082015260600190565b805161103f81610e6a565b919050565b60006020828403121561105657600080fd5b8151610ff681610e6a565b6020808252818101527f5265706f7274537461747573486f6f6b2f77726f6e672d736368656d612d6964604082015260600190565b634e487b7160e01b600052604160045260246000fd5b60405161014081016001600160401b03811182821017156110cf576110cf611096565b60405290565b604051601f8201601f191681016001600160401b03811182821017156110fd576110fd611096565b604052919050565b805161103f81610e52565b80516004811061103f57600080fd5b8051801515811461103f57600080fd5b600082601f83011261114057600080fd5b81516001600160401b0381111561115957611159611096565b61116c601f8201601f19166020016110d5565b81815284602083860101111561118157600080fd5b60005b828110156111a057602081860181015183830182015201611184565b506000918101602001919091529392505050565b600082601f8301126111c557600080fd5b81516001600160401b038111156111de576111de611096565b8060051b6111ee602082016110d5565b9182526020818501810192908101908684111561120a57600080fd5b6020860192505b838310156112505782516001600160401b0381111561122f57600080fd5b61123e886020838a010161112f565b83525060209283019290910190611211565b9695505050505050565b60006020828403121561126c57600080fd5b81516001600160401b0381111561128257600080fd5b8201610140818503121561129557600080fd5b61129d6110ac565b6112a682611034565b81526112b460208301611034565b60208201526112c560408301611034565b60408201526112d660608301611034565b60608201526112e760808301611105565b60808201526112f860a08301611034565b60a082015261130960c08301611110565b60c082015261131a60e0830161111f565b60e08201526101008201516001600160401b0381111561133957600080fd5b611345868285016111b4565b610100830152506101208201516001600160401b0381111561136657600080fd5b6113728682850161112f565b61012083015250949350505050565b60006020828403121561139357600080fd5b5051919050565b6000602082840312156113ac57600080fd5b8151610ff681610e5256fea26469706673582212203a86f838e3ec3776add19d2182acf0c2bceac5323aaf7b02c2b8c452cca386ae64736f6c634300081c0033000000000000000000000000a6a84793b52a82c0a3c71a08303c879619790bf7000000000000000000000000878c92fd89d8e0b93dc0a3c907a2adc7577e39c5",
        "nonce": "0x66",
        "chainId": "0xaa36a7"
      },
      "additionalContracts": [],
      "isFixedGasLimit": false
    },
    {
      "hash": "0xb071061cc50f64012a1c68debbe4d5c41940324cdd1b1560953fa8b165a28609",
      "transactionType": "CALL",
      "contractName": null,
      "contractAddress": "0x878c92fd89d8e0b93dc0a3c907a2adc7577e39c5",
      "function": "register((address,bool,uint8,uint64,address,uint64,string),bytes)",
      "arguments": [
        "(0xdC233b5368d39FED2EB99EE4dc225882D35ff4B6, true, 0, 0, 0x837fA2441E35c0ae55B61F6b456c7670194d115A, 1731790980, [{\\\"name\\\":\\\"amount\\\",\\\"type\\\":\\\"uint256\\\"}])",
        "0x"
      ],
      "transaction": {
        "from": "0xdc233b5368d39fed2eb99ee4dc225882d35ff4b6",
        "to": "0x878c92fd89d8e0b93dc0a3c907a2adc7577e39c5",
        "gas": "0x33ce0",
        "value": "0x0",
        "input": "0xe117a86100000000000000000000000000000000000000000000000000000000000000400000000000000000000000000000000000000000000000000000000000000180000000000000000000000000dc233b5368d39fed2eb99ee4dc225882d35ff4b6000000000000000000000000000000000000000000000000000000000000000100000000000000000000000000000000000000000000000000000000000000000000000000000000000000000000000000000000000000000000000000000000000000000000000000000000837fa2441e35c0ae55b61f6b456c7670194d115a000000000000000000000000000000000000000000000000000000006739088400000000000000000000000000000000000000000000000000000000000000e000000000000000000000000000000000000000000000000000000000000000245b7b226e616d65223a22616d6f756e74222c2274797065223a2275696e74323536227d5d000000000000000000000000000000000000000000000000000000000000000000000000000000000000000000000000000000000000000000000000",
        "nonce": "0x67",
        "chainId": "0xaa36a7"
      },
      "additionalContracts": [],
      "isFixedGasLimit": false
    },
    {
      "hash": "0x3f851327744376226bbf83c94137591245d249e16b8d2505bd65515628571eab",
      "transactionType": "CALL",
      "contractName": "AuditManager",
      "contractAddress": "0xa6a84793b52a82c0a3c71a08303c879619790bf7",
      "function": "setSchema(bytes32,uint64)",
      "arguments": [
        "0x626f756e74790000000000000000000000000000000000000000000000000000",
        "782"
      ],
      "transaction": {
        "from": "0xdc233b5368d39fed2eb99ee4dc225882d35ff4b6",
        "to": "0xa6a84793b52a82c0a3c71a08303c879619790bf7",
        "gas": "0x219cf",
        "value": "0x0",
        "input": "0xe2788f49626f756e74790000000000000000000000000000000000000000000000000000000000000000000000000000000000000000000000000000000000000000030e",
        "nonce": "0x68",
        "chainId": "0xaa36a7"
      },
      "additionalContracts": [],
      "isFixedGasLimit": false
    },
    {
      "hash": "0x912edc8f710587e0be006c3383537d1b2f7a3151be4a659f97c3b110ab2de4ef",
      "transactionType": "CALL",
      "contractName": "AuditManager",
      "contractAddress": "0xa6a84793b52a82c0a3c71a08303c879619790bf7",
      "function": "setSchema(bytes32,uint64)",
      "arguments": [
        "0x7265706f72740000000000000000000000000000000000000000000000000000",
        "783"
      ],
      "transaction": {
        "from": "0xdc233b5368d39fed2eb99ee4dc225882d35ff4b6",
        "to": "0xa6a84793b52a82c0a3c71a08303c879619790bf7",
        "gas": "0x200cf",
        "value": "0x0",
        "input": "0xe2788f497265706f72740000000000000000000000000000000000000000000000000000000000000000000000000000000000000000000000000000000000000000030f",
        "nonce": "0x69",
        "chainId": "0xaa36a7"
      },
      "additionalContracts": [],
      "isFixedGasLimit": false
    },
    {
      "hash": "0x9f2cdefe79098f4cec8a60141008faeec947cb14c078cdf9c25a0915c37027f2",
      "transactionType": "CALL",
      "contractName": "AuditManager",
      "contractAddress": "0xa6a84793b52a82c0a3c71a08303c879619790bf7",
      "function": "setSchema(bytes32,uint64)",
      "arguments": [
        "0x7265706f72745374617475730000000000000000000000000000000000000000",
        "784"
      ],
      "transaction": {
        "from": "0xdc233b5368d39fed2eb99ee4dc225882d35ff4b6",
        "to": "0xa6a84793b52a82c0a3c71a08303c879619790bf7",
        "gas": "0x20132",
        "value": "0x0",
        "input": "0xe2788f497265706f727453746174757300000000000000000000000000000000000000000000000000000000000000000000000000000000000000000000000000000310",
        "nonce": "0x6a",
        "chainId": "0xaa36a7"
      },
      "additionalContracts": [],
      "isFixedGasLimit": false
    },
    {
      "hash": "0x4af0c070fc5282742b1c451673437712c33ab2888d9a138576da874ebe814a1c",
      "transactionType": "CALL",
      "contractName": null,
      "contractAddress": "0xa13650b69fd79249eb1efd950f1ae6b20c99ae6a",
      "function": "rely(address)",
      "arguments": [
        "0x837fA2441E35c0ae55B61F6b456c7670194d115A"
      ],
      "transaction": {
        "from": "0xdc233b5368d39fed2eb99ee4dc225882d35ff4b6",
        "to": "0xa13650b69fd79249eb1efd950f1ae6b20c99ae6a",
        "gas": "0xf96e",
        "value": "0x0",
        "input": "0x65fae35e000000000000000000000000837fa2441e35c0ae55b61f6b456c7670194d115a",
        "nonce": "0x6b",
        "chainId": "0xaa36a7"
      },
      "additionalContracts": [],
      "isFixedGasLimit": false
    }
  ],
  "receipts": [
    {
      "status": "0x1",
      "cumulativeGasUsed": "0x9a38e7",
      "logs": [],
      "logsBloom": "0x00000000000000000000000000000000000000000000000000000000000000000000000000000000000000000000000000000000000000000000000000000000000000000000000000000000000000000000000000000000000000000000000000000000000000000000000000000000000000000000000000000000000000000000000000000000000000000000000000000000000000000000000000000000000000000000000000000000000000000000000000000000000000000000000000000000000000000000000000000000000000000000000000000000000000000000000000000000000000000000000000000000000000000000000000000000",
      "type": "0x2",
      "transactionHash": "0x3fd79198597edd330feaada3e9f2fe9348620072af348d75034749fe38228e17",
      "transactionIndex": "0x46",
      "blockHash": "0x413b82bcbd0fa5d636aeee1d3445b8edf0d741f9cb30aa8e01f2be4527a77f9f",
      "blockNumber": "0x6c33f4",
      "gasUsed": "0x6c0a4",
      "effectiveGasPrice": "0x2a04c95",
      "from": "0xdc233b5368d39fed2eb99ee4dc225882d35ff4b6",
      "to": null,
      "contractAddress": "0xa6a84793b52a82c0a3c71a08303c879619790bf7"
    },
    {
      "status": "0x1",
      "cumulativeGasUsed": "0xaca3fb",
      "logs": [],
      "logsBloom": "0x00000000000000000000000000000000000000000000000000000000000000000000000000000000000000000000000000000000000000000000000000000000000000000000000000000000000000000000000000000000000000000000000000000000000000000000000000000000000000000000000000000000000000000000000000000000000000000000000000000000000000000000000000000000000000000000000000000000000000000000000000000000000000000000000000000000000000000000000000000000000000000000000000000000000000000000000000000000000000000000000000000000000000000000000000000000",
      "type": "0x2",
      "transactionHash": "0x0ba93b7f7198fcaf8b5d0b27adeddd4807b12c047a2d722066ff2455f47cf10c",
      "transactionIndex": "0x47",
      "blockHash": "0x413b82bcbd0fa5d636aeee1d3445b8edf0d741f9cb30aa8e01f2be4527a77f9f",
      "blockNumber": "0x6c33f4",
      "gasUsed": "0x126b14",
      "effectiveGasPrice": "0x2a04c95",
      "from": "0xdc233b5368d39fed2eb99ee4dc225882d35ff4b6",
      "to": null,
      "contractAddress": "0xa13650b69fd79249eb1efd950f1ae6b20c99ae6a"
    },
    {
      "status": "0x1",
      "cumulativeGasUsed": "0xafae25",
      "logs": [
        {
          "address": "0x878c92fd89d8e0b93dc0a3c907a2adc7577e39c5",
          "topics": [
            "0xd0f9818d35b9c7d941f89e81a08a7f4761384ae32aeaf4a913b94319a321e7ff"
          ],
          "data": "0x000000000000000000000000000000000000000000000000000000000000030e",
          "blockHash": "0x413b82bcbd0fa5d636aeee1d3445b8edf0d741f9cb30aa8e01f2be4527a77f9f",
          "blockNumber": "0x6c33f4",
          "transactionHash": "0x96b5e9a62c9d22fbee9e6187bd3bf361702ca9d99476704a0afc6402deed7127",
          "transactionIndex": "0x48",
          "logIndex": "0x5f",
          "removed": false
        }
      ],
      "logsBloom": "0x00000000000000000000000000000000000000000000000000000000000000000000000000000000000000000002000000000000000000000000000000000000000000000000000000000000000000000000000000000000000000000000000000000000000000000000000000000000000000000000000000000000000000000000000000000000000000000000000000000000000000000000000000020000000000000000000000000000000000000000000000000000000000000001040000000000000000000000000000000000000000000000000000000000000000000000000000000000000000000000000000000000040000000200000000000000",
      "type": "0x2",
      "transactionHash": "0x96b5e9a62c9d22fbee9e6187bd3bf361702ca9d99476704a0afc6402deed7127",
      "transactionIndex": "0x48",
      "blockHash": "0x413b82bcbd0fa5d636aeee1d3445b8edf0d741f9cb30aa8e01f2be4527a77f9f",
      "blockNumber": "0x6c33f4",
      "gasUsed": "0x30a2a",
      "effectiveGasPrice": "0x2a04c95",
      "from": "0xdc233b5368d39fed2eb99ee4dc225882d35ff4b6",
      "to": "0x878c92fd89d8e0b93dc0a3c907a2adc7577e39c5",
      "contractAddress": null
    },
    {
      "status": "0x1",
      "cumulativeGasUsed": "0xbc8faa",
      "logs": [],
      "logsBloom": "0x00000000000000000000000000000000000000000000000000000000000000000000000000000000000000000000000000000000000000000000000000000000000000000000000000000000000000000000000000000000000000000000000000000000000000000000000000000000000000000000000000000000000000000000000000000000000000000000000000000000000000000000000000000000000000000000000000000000000000000000000000000000000000000000000000000000000000000000000000000000000000000000000000000000000000000000000000000000000000000000000000000000000000000000000000000000",
      "type": "0x2",
      "transactionHash": "0x4d9943699b56b1df68eeee413d18ee424f25a906e06b495d3aa0d7cd8d86f465",
      "transactionIndex": "0x4b",
      "blockHash": "0x413b82bcbd0fa5d636aeee1d3445b8edf0d741f9cb30aa8e01f2be4527a77f9f",
      "blockNumber": "0x6c33f4",
      "gasUsed": "0xb3c47",
      "effectiveGasPrice": "0x2a04c95",
      "from": "0xdc233b5368d39fed2eb99ee4dc225882d35ff4b6",
      "to": null,
      "contractAddress": "0xd73d431d77c3583a346462028b398c6bd6513c0b"
    },
    {
      "status": "0x1",
      "cumulativeGasUsed": "0xbee7c2",
      "logs": [
        {
          "address": "0x878c92fd89d8e0b93dc0a3c907a2adc7577e39c5",
          "topics": [
            "0xd0f9818d35b9c7d941f89e81a08a7f4761384ae32aeaf4a913b94319a321e7ff"
          ],
          "data": "0x000000000000000000000000000000000000000000000000000000000000030f",
          "blockHash": "0x413b82bcbd0fa5d636aeee1d3445b8edf0d741f9cb30aa8e01f2be4527a77f9f",
          "blockNumber": "0x6c33f4",
          "transactionHash": "0x3ecbf726c6c8aa19310f139282ddda51e3c4eea99985501760345f5446195717",
          "transactionIndex": "0x4c",
          "logIndex": "0x61",
          "removed": false
        }
      ],
      "logsBloom": "0x00000000000000000000000000000000000000000000000000000000000000000000000000000000000000000002000000000000000000000000000000000000000000000000000000000000000000000000000000000000000000000000000000000000000000000000000000000000000000000000000000000000000000000000000000000000000000000000000000000000000000000000000000020000000000000000000000000000000000000000000000000000000000000001040000000000000000000000000000000000000000000000000000000000000000000000000000000000000000000000000000000000040000000200000000000000",
      "type": "0x2",
      "transactionHash": "0x3ecbf726c6c8aa19310f139282ddda51e3c4eea99985501760345f5446195717",
      "transactionIndex": "0x4c",
      "blockHash": "0x413b82bcbd0fa5d636aeee1d3445b8edf0d741f9cb30aa8e01f2be4527a77f9f",
      "blockNumber": "0x6c33f4",
      "gasUsed": "0x25818",
      "effectiveGasPrice": "0x2a04c95",
      "from": "0xdc233b5368d39fed2eb99ee4dc225882d35ff4b6",
      "to": "0x878c92fd89d8e0b93dc0a3c907a2adc7577e39c5",
      "contractAddress": null
    },
    {
      "status": "0x1",
      "cumulativeGasUsed": "0xd0e006",
      "logs": [],
      "logsBloom": "0x00000000000000000000000000000000000000000000000000000000000000000000000000000000000000000000000000000000000000000000000000000000000000000000000000000000000000000000000000000000000000000000000000000000000000000000000000000000000000000000000000000000000000000000000000000000000000000000000000000000000000000000000000000000000000000000000000000000000000000000000000000000000000000000000000000000000000000000000000000000000000000000000000000000000000000000000000000000000000000000000000000000000000000000000000000000",
      "type": "0x2",
      "transactionHash": "0x52c293e5243242e64f39836ffef5b883c882425c6e407a25e6f210a537e6fb10",
      "transactionIndex": "0x4d",
      "blockHash": "0x413b82bcbd0fa5d636aeee1d3445b8edf0d741f9cb30aa8e01f2be4527a77f9f",
      "blockNumber": "0x6c33f4",
      "gasUsed": "0x11f844",
      "effectiveGasPrice": "0x2a04c95",
      "from": "0xdc233b5368d39fed2eb99ee4dc225882d35ff4b6",
      "to": null,
      "contractAddress": "0x837fa2441e35c0ae55b61f6b456c7670194d115a"
    },
    {
      "status": "0x1",
      "cumulativeGasUsed": "0xd3381e",
      "logs": [
        {
          "address": "0x878c92fd89d8e0b93dc0a3c907a2adc7577e39c5",
          "topics": [
            "0xd0f9818d35b9c7d941f89e81a08a7f4761384ae32aeaf4a913b94319a321e7ff"
          ],
          "data": "0x0000000000000000000000000000000000000000000000000000000000000310",
          "blockHash": "0x413b82bcbd0fa5d636aeee1d3445b8edf0d741f9cb30aa8e01f2be4527a77f9f",
          "blockNumber": "0x6c33f4",
          "transactionHash": "0xb071061cc50f64012a1c68debbe4d5c41940324cdd1b1560953fa8b165a28609",
          "transactionIndex": "0x4e",
          "logIndex": "0x62",
          "removed": false
        }
      ],
      "logsBloom": "0x00000000000000000000000000000000000000000000000000000000000000000000000000000000000000000002000000000000000000000000000000000000000000000000000000000000000000000000000000000000000000000000000000000000000000000000000000000000000000000000000000000000000000000000000000000000000000000000000000000000000000000000000000020000000000000000000000000000000000000000000000000000000000000001040000000000000000000000000000000000000000000000000000000000000000000000000000000000000000000000000000000000040000000200000000000000",
      "type": "0x2",
      "transactionHash": "0xb071061cc50f64012a1c68debbe4d5c41940324cdd1b1560953fa8b165a28609",
      "transactionIndex": "0x4e",
      "blockHash": "0x413b82bcbd0fa5d636aeee1d3445b8edf0d741f9cb30aa8e01f2be4527a77f9f",
      "blockNumber": "0x6c33f4",
      "gasUsed": "0x25818",
      "effectiveGasPrice": "0x2a04c95",
      "from": "0xdc233b5368d39fed2eb99ee4dc225882d35ff4b6",
      "to": "0x878c92fd89d8e0b93dc0a3c907a2adc7577e39c5",
      "contractAddress": null
    },
    {
      "status": "0x1",
      "cumulativeGasUsed": "0xd4bd7c",
      "logs": [],
      "logsBloom": "0x00000000000000000000000000000000000000000000000000000000000000000000000000000000000000000000000000000000000000000000000000000000000000000000000000000000000000000000000000000000000000000000000000000000000000000000000000000000000000000000000000000000000000000000000000000000000000000000000000000000000000000000000000000000000000000000000000000000000000000000000000000000000000000000000000000000000000000000000000000000000000000000000000000000000000000000000000000000000000000000000000000000000000000000000000000000",
      "type": "0x2",
      "transactionHash": "0x3f851327744376226bbf83c94137591245d249e16b8d2505bd65515628571eab",
      "transactionIndex": "0x4f",
      "blockHash": "0x413b82bcbd0fa5d636aeee1d3445b8edf0d741f9cb30aa8e01f2be4527a77f9f",
      "blockNumber": "0x6c33f4",
      "gasUsed": "0x1855e",
      "effectiveGasPrice": "0x2a04c95",
      "from": "0xdc233b5368d39fed2eb99ee4dc225882d35ff4b6",
      "to": "0xa6a84793b52a82c0a3c71a08303c879619790bf7",
      "contractAddress": null
    },
    {
      "status": "0x1",
      "cumulativeGasUsed": "0xd630c0",
      "logs": [],
      "logsBloom": "0x00000000000000000000000000000000000000000000000000000000000000000000000000000000000000000000000000000000000000000000000000000000000000000000000000000000000000000000000000000000000000000000000000000000000000000000000000000000000000000000000000000000000000000000000000000000000000000000000000000000000000000000000000000000000000000000000000000000000000000000000000000000000000000000000000000000000000000000000000000000000000000000000000000000000000000000000000000000000000000000000000000000000000000000000000000000",
      "type": "0x2",
      "transactionHash": "0x912edc8f710587e0be006c3383537d1b2f7a3151be4a659f97c3b110ab2de4ef",
      "transactionIndex": "0x50",
      "blockHash": "0x413b82bcbd0fa5d636aeee1d3445b8edf0d741f9cb30aa8e01f2be4527a77f9f",
      "blockNumber": "0x6c33f4",
      "gasUsed": "0x17344",
      "effectiveGasPrice": "0x2a04c95",
      "from": "0xdc233b5368d39fed2eb99ee4dc225882d35ff4b6",
      "to": "0xa6a84793b52a82c0a3c71a08303c879619790bf7",
      "contractAddress": null
    },
    {
      "status": "0x1",
      "cumulativeGasUsed": "0xd7a44c",
      "logs": [],
      "logsBloom": "0x00000000000000000000000000000000000000000000000000000000000000000000000000000000000000000000000000000000000000000000000000000000000000000000000000000000000000000000000000000000000000000000000000000000000000000000000000000000000000000000000000000000000000000000000000000000000000000000000000000000000000000000000000000000000000000000000000000000000000000000000000000000000000000000000000000000000000000000000000000000000000000000000000000000000000000000000000000000000000000000000000000000000000000000000000000000",
      "type": "0x2",
      "transactionHash": "0x9f2cdefe79098f4cec8a60141008faeec947cb14c078cdf9c25a0915c37027f2",
      "transactionIndex": "0x51",
      "blockHash": "0x413b82bcbd0fa5d636aeee1d3445b8edf0d741f9cb30aa8e01f2be4527a77f9f",
      "blockNumber": "0x6c33f4",
      "gasUsed": "0x1738c",
      "effectiveGasPrice": "0x2a04c95",
      "from": "0xdc233b5368d39fed2eb99ee4dc225882d35ff4b6",
      "to": "0xa6a84793b52a82c0a3c71a08303c879619790bf7",
      "contractAddress": null
    },
    {
      "status": "0x1",
      "cumulativeGasUsed": "0xd858e2",
      "logs": [],
      "logsBloom": "0x00000000000000000000000000000000000000000000000000000000000000000000000000000000000000000000000000000000000000000000000000000000000000000000000000000000000000000000000000000000000000000000000000000000000000000000000000000000000000000000000000000000000000000000000000000000000000000000000000000000000000000000000000000000000000000000000000000000000000000000000000000000000000000000000000000000000000000000000000000000000000000000000000000000000000000000000000000000000000000000000000000000000000000000000000000000",
      "type": "0x2",
      "transactionHash": "0x4af0c070fc5282742b1c451673437712c33ab2888d9a138576da874ebe814a1c",
      "transactionIndex": "0x52",
      "blockHash": "0x413b82bcbd0fa5d636aeee1d3445b8edf0d741f9cb30aa8e01f2be4527a77f9f",
      "blockNumber": "0x6c33f4",
      "gasUsed": "0xb496",
      "effectiveGasPrice": "0x2a04c95",
      "from": "0xdc233b5368d39fed2eb99ee4dc225882d35ff4b6",
      "to": "0xa13650b69fd79249eb1efd950f1ae6b20c99ae6a",
      "contractAddress": null
    }
  ],
  "libraries": [],
  "pending": [],
  "returns": {},
  "timestamp": 1731791119,
  "chain": 11155111,
  "commit": "ea82544"
}