{
  "transactions": [
    {
      "hash": "0xe6118a8bdd49208983c703fee95e340f14c2cac675c70838daa62e5691b18dfe",
      "transactionType": "CREATE",
      "contractName": "AuditManager",
      "contractAddress": "0xfb9b0ead260b54df38868d2ee52979eb71f24d50",
      "function": null,
      "arguments": [
        "0x878c92FD89d8E0B93Dc0a3c907A2adc7577e39c5"
      ],
      "transaction": {
        "from": "0xdc233b5368d39fed2eb99ee4dc225882d35ff4b6",
        "gas": "0x8c6aa",
        "value": "0x0",
        "input": "0x6080604052348015600f57600080fd5b506040516106cd3803806106cd833981016040819052602c91605e565b60008054336001600160a01b031991821617909155600380549091166001600160a01b0392909216919091179055608c565b600060208284031215606f57600080fd5b81516001600160a01b0381168114608557600080fd5b9392505050565b6106328061009b6000396000f3fe608060405234801561001057600080fd5b50600436106100625760003560e01c80636e91f721146100675780639e3ddafc146100af578063d5026230146100c2578063e2788f4914610103578063f851a44014610118578063fc9564d01461012b575b600080fd5b610091610075366004610335565b60016020526000908152604090205467ffffffffffffffff1681565b60405167ffffffffffffffff90911681526020015b60405180910390f35b6100916100bd366004610366565b610155565b6100eb6100d0366004610335565b6002602052600090815260409020546001600160a01b031681565b6040516001600160a01b0390911681526020016100a6565b6101166101113660046103a8565b610204565b005b6000546100eb906001600160a01b031681565b610091610139366004610335565b60009081526001602052604090205467ffffffffffffffff1690565b65626f756e747960d01b600090815260026020527f557251618206bcc7094b685c9b12776808503046e78f6ab0d209c7860e5042b05460405163278f76bf60e21b81526001600160a01b0385811660048301526024820185905290911690639e3ddafc90604401602060405180830381865afa1580156101d9573d6000803e3d6000fd5b505050506040513d601f19601f820116820180604052508101906101fd91906103e8565b9392505050565b6000546001600160a01b031633146102625760405162461bcd60e51b815260206004820152601c60248201527f4175646974436f6e74726163742f6e6f742d617574686f72697a656400000000604482015260640160405180910390fd5b60008281526001602052604090819020805467ffffffffffffffff191667ffffffffffffffff84169081179091556003549151638d1be87560e01b815260048101919091526001600160a01b0390911690638d1be87590602401600060405180830381865afa1580156102d9573d6000803e3d6000fd5b505050506040513d6000823e601f3d908101601f191682016040526103019190810190610525565b6080015160009283526002602052604090922080546001600160a01b0319166001600160a01b039093169290921790915550565b60006020828403121561034757600080fd5b5035919050565b6001600160a01b038116811461036357600080fd5b50565b6000806040838503121561037957600080fd5b82356103848161034e565b946020939093013593505050565b67ffffffffffffffff8116811461036357600080fd5b600080604083850312156103bb57600080fd5b8235915060208301356103cd81610392565b809150509250929050565b80516103e381610392565b919050565b6000602082840312156103fa57600080fd5b81516101fd81610392565b634e487b7160e01b600052604160045260246000fd5b60405160e0810167ffffffffffffffff8111828210171561043e5761043e610405565b60405290565b604051601f8201601f1916810167ffffffffffffffff8111828210171561046d5761046d610405565b604052919050565b80516103e38161034e565b805180151581146103e357600080fd5b8051600481106103e357600080fd5b600082601f8301126104b057600080fd5b815167ffffffffffffffff8111156104ca576104ca610405565b6104dd601f8201601f1916602001610444565b8181528460208386010111156104f257600080fd5b60005b82811015610511576020818601810151838301820152016104f5565b506000918101602001919091529392505050565b60006020828403121561053757600080fd5b815167ffffffffffffffff81111561054e57600080fd5b820160e0818503121561056057600080fd5b61056861041b565b61057182610475565b815261057f60208301610480565b602082015261059060408301610490565b60408201526105a1606083016103d8565b60608201526105b260808301610475565b60808201526105c360a083016103d8565b60a082015260c082015167ffffffffffffffff8111156105e257600080fd5b6105ee8682850161049f565b60c08301525094935050505056fea2646970667358221220e070c9f25ebff3b664d123bb74bb21d80c5afc8e0c96e0f303f2efbf87f1f3e364736f6c634300081c0033000000000000000000000000878c92fd89d8e0b93dc0a3c907a2adc7577e39c5",
        "nonce": "0x78",
        "chainId": "0xaa36a7"
      },
      "additionalContracts": [],
      "isFixedGasLimit": false
    },
    {
      "hash": "0x12d4a79627c2a174cbafee6c7a748ab6b31b31bad5b506df73d9831f3f241091",
      "transactionType": "CREATE",
      "contractName": null,
      "contractAddress": "0x54882ce2948cff131d3462ef7521060d9ac4e436",
      "function": null,
      "arguments": null,
      "transaction": {
        "from": "0xdc233b5368d39fed2eb99ee4dc225882d35ff4b6",
        "gas": "0x17efdd",
        "value": "0x0",
        "input": "0x60c060405234801561001057600080fd5b5060405161151b38038061151b83398101604081905261002f91610099565b33600090815260016020819052604080832080546001600160401b031990811684179091556001600160a01b0394851680855291909320805490931690911790915560a052166080526100cc565b80516001600160a01b038116811461009457600080fd5b919050565b600080604083850312156100ac57600080fd5b6100b58361007d565b91506100c36020840161007d565b90509250929050565b60805160a0516114076101146000396000818161032d015281816104dc0152610b0f015260008181610167015281816103c20152818161092c0152610a3901526114076000f3fe6080604052600436106100f35760003560e01c806390ffbd531161008a578063e1dadf3b11610059578063e1dadf3b1461031b578063e33361f41461034f578063e830b5c714610362578063f8895cc81461038257600080fd5b806390ffbd53146102855780639c52a7f1146102a55780639e3ddafc146102c5578063bf353dbb146102e557600080fd5b80634466507a116100c65780634466507a146101b657806362eab963146101d657806365fae35e1461022f578063807f54ea1461024f57600080fd5b806306fdde03146100f85780630e6f472f1461012857806317095529146101555780633398b4ed146101a1575b600080fd5b34801561010457600080fd5b5061011565626f756e747960d01b81565b6040519081526020015b60405180910390f35b34801561013457600080fd5b50610115610143366004610d5f565b60036020526000908152604090205481565b34801561016157600080fd5b506101897f000000000000000000000000000000000000000000000000000000000000000081565b6040516001600160a01b03909116815260200161011f565b6101b46101af366004610de0565b6103a2565b005b3480156101c257600080fd5b506101b46101d1366004610e5b565b61065b565b3480156101e257600080fd5b506102176101f1366004610ef2565b60026020908152600092835260408084209091529082529020546001600160401b031681565b6040516001600160401b03909116815260200161011f565b34801561023b57600080fd5b506101b461024a366004610f22565b61069c565b34801561025b57600080fd5b5061011561026a366004610d5f565b6001600160401b031660009081526003602052604090205490565b34801561029157600080fd5b506101b46102a0366004610f3f565b610703565b3480156102b157600080fd5b506101b46102c0366004610f22565b610878565b3480156102d157600080fd5b506102176102e0366004610f80565b6108d9565b3480156102f157600080fd5b50610217610300366004610f22565b6001602052600090815260409020546001600160401b031681565b34801561032757600080fd5b506101897f000000000000000000000000000000000000000000000000000000000000000081565b6101b461035d366004610de0565b61090c565b34801561036e57600080fd5b506101b461037d366004610e5b565b6109e0565b34801561038e57600080fd5b50600054610217906001600160401b031681565b604051630fc9564d60e41b815265626f756e747960d01b600482015284907f00000000000000000000000000000000000000000000000000000000000000006001600160a01b03169063fc9564d090602401602060405180830381865afa158015610411573d6000803e3d6000fd5b505050506040513d601f19601f820116820180604052508101906104359190610fbc565b6001600160401b0316816001600160401b03161461046e5760405162461bcd60e51b815260040161046590610fd9565b60405180910390fd5b34806104bc5760405162461bcd60e51b815260206004820152601d60248201527f426f756e7479486f6f6b2f7a65726f2d626f756e74792d616d6f756e740000006044820152606401610465565b60405162c44a5160e71b81526001600160401b03861660048201526000907f00000000000000000000000000000000000000000000000000000000000000006001600160a01b031690636225288090602401600060405180830381865afa15801561052b573d6000803e3d6000fd5b505050506040513d6000823e601f3d908101601f1916820160405261055391908101906111e5565b9050600080826101200151806020019051810190610571919061130c565b5060008181526002602090815260408083206001600160a01b038616845290915290205491935091506001600160401b0316156106055760405162461bcd60e51b815260206004820152602c60248201527f426f756e7479486f6f6b2f626f756e74792d616c72656164792d65786973742d60448201526b199bdc8b58dbdb9d1c9858dd60a21b6064820152608401610465565b60009081526002602090815260408083206001600160a01b03909416835292815282822080546001600160401b03909a1667ffffffffffffffff19909a168a179055978152600390975290952055505050505050565b60405162461bcd60e51b8152602060048201526016602482015275109bdd5b9d1e521bdbdacbdd5b9cdd5c1c1bdc9d195960521b6044820152606401610465565b336000908152600160208190526040909120546001600160401b0316146106d55760405162461bcd60e51b815260040161046590611379565b6001600160a01b03166000908152600160208190526040909120805467ffffffffffffffff19169091179055565b336000908152600160208190526040909120546001600160401b03161461073c5760405162461bcd60e51b815260040161046590611379565b6001600160401b0383166000908152600360205260409020548111156107a45760405162461bcd60e51b815260206004820152601f60248201527f426f756e7479486f6f6b2f696e73756666696369656e742d62616c616e6365006044820152606401610465565b6001600160401b038316600090815260036020526040812080548392906107cc9084906113b0565b90915550506040516000906001600160a01b0384169083908381818185875af1925050503d806000811461081c576040519150601f19603f3d011682016040523d82523d6000602084013e610821565b606091505b50509050806108725760405162461bcd60e51b815260206004820152601a60248201527f426f756e7479486f6f6b2f7472616e736665722d6661696c65640000000000006044820152606401610465565b50505050565b336000908152600160208190526040909120546001600160401b0316146108b15760405162461bcd60e51b815260040161046590611379565b6001600160a01b03166000908152600160205260409020805467ffffffffffffffff19169055565b60008181526002602090815260408083206001600160a01b03861684529091529020546001600160401b03165b92915050565b604051630fc9564d60e41b815265626f756e747960d01b600482015284907f00000000000000000000000000000000000000000000000000000000000000006001600160a01b03169063fc9564d090602401602060405180830381865afa15801561097b573d6000803e3d6000fd5b505050506040513d601f19601f8201168201806040525081019061099f9190610fbc565b6001600160401b0316816001600160401b0316146109cf5760405162461bcd60e51b815260040161046590610fd9565b6109d884610aef565b505050505050565b336000908152600160208190526040909120546001600160401b031614610a195760405162461bcd60e51b815260040161046590611379565b604051630fc9564d60e41b815265626f756e747960d01b600482015286907f00000000000000000000000000000000000000000000000000000000000000006001600160a01b03169063fc9564d090602401602060405180830381865afa158015610a88573d6000803e3d6000fd5b505050506040513d601f19601f82011682018060405250810190610aac9190610fbc565b6001600160401b0316816001600160401b031614610adc5760405162461bcd60e51b815260040161046590610fd9565b610ae586610aef565b5050505050505050565b60405162c44a5160e71b81526001600160401b03821660048201526000907f00000000000000000000000000000000000000000000000000000000000000006001600160a01b031690636225288090602401600060405180830381865afa158015610b5e573d6000803e3d6000fd5b505050506040513d6000823e601f3d908101601f19168201604052610b8691908101906111e5565b9050600080826101200151806020019051810190610ba4919061130c565b5060008181526002602090815260408083206001600160a01b038616845290915290205491935091506001600160401b03858116911614610c385760405162461bcd60e51b815260206004820152602860248201527f426f756e7479486f6f6b2f6174746573746174696f6e2d69642d646f65732d6e6044820152670dee85adac2e8c6d60c31b6064820152608401610465565b6001600160401b03841660009081526003602052604080822054608086015191519092916001600160a01b03169083908381818185875af1925050503d8060008114610ca0576040519150601f19603f3d011682016040523d82523d6000602084013e610ca5565b606091505b5050905080610cf65760405162461bcd60e51b815260206004820152601a60248201527f426f756e7479486f6f6b2f7472616e736665722d6661696c65640000000000006044820152606401610465565b505060009081526002602090815260408083206001600160a01b039094168352928152828220805467ffffffffffffffff191690556001600160401b03949094168152600390935282209190915550565b6001600160401b0381168114610d5c57600080fd5b50565b600060208284031215610d7157600080fd5b8135610d7c81610d47565b9392505050565b6001600160a01b0381168114610d5c57600080fd5b60008083601f840112610daa57600080fd5b5081356001600160401b03811115610dc157600080fd5b602083019150836020828501011115610dd957600080fd5b9250929050565b600080600080600060808688031215610df857600080fd5b8535610e0381610d83565b94506020860135610e1381610d47565b93506040860135610e2381610d47565b925060608601356001600160401b03811115610e3e57600080fd5b610e4a88828901610d98565b969995985093965092949392505050565b600080600080600080600060c0888a031215610e7657600080fd5b8735610e8181610d83565b96506020880135610e9181610d47565b95506040880135610ea181610d47565b94506060880135610eb181610d83565b93506080880135925060a08801356001600160401b03811115610ed357600080fd5b610edf8a828b01610d98565b989b979a50959850939692959293505050565b60008060408385031215610f0557600080fd5b823591506020830135610f1781610d83565b809150509250929050565b600060208284031215610f3457600080fd5b8135610d7c81610d83565b600080600060608486031215610f5457600080fd5b8335610f5f81610d47565b92506020840135610f6f81610d83565b929592945050506040919091013590565b60008060408385031215610f9357600080fd5b8235610f9e81610d83565b946020939093013593505050565b8051610fb781610d47565b919050565b600060208284031215610fce57600080fd5b8151610d7c81610d47565b6020808252601a908201527f426f756e7479486f6f6b2f77726f6e672d736368656d612d6964000000000000604082015260600190565b634e487b7160e01b600052604160045260246000fd5b60405161014081016001600160401b038111828210171561104957611049611010565b60405290565b604051601f8201601f191681016001600160401b038111828210171561107757611077611010565b604052919050565b8051610fb781610d83565b805160048110610fb757600080fd5b80518015158114610fb757600080fd5b6000806001600160401b038411156110c3576110c3611010565b50601f8301601f19166020016110d88161104f565b9150508281528383830111156110ed57600080fd5b60005b8381101561110e5780830151602082840101526020810190506110f0565b506000602084830101529392505050565b600082601f83011261113057600080fd5b610d7c838351602085016110a9565b600082601f83011261115057600080fd5b81516001600160401b0381111561116957611169611010565b8060051b6111796020820161104f565b9182526020818501810192908101908684111561119557600080fd5b6020860192505b838310156111db5782516001600160401b038111156111ba57600080fd5b6111c9886020838a010161111f565b8352506020928301929091019061119c565b9695505050505050565b6000602082840312156111f757600080fd5b81516001600160401b0381111561120d57600080fd5b8201610140818503121561122057600080fd5b611228611026565b61123182610fac565b815261123f60208301610fac565b602082015261125060408301610fac565b604082015261126160608301610fac565b60608201526112726080830161107f565b608082015261128360a08301610fac565b60a082015261129460c0830161108a565b60c08201526112a560e08301611099565b60e08201526101008201516001600160401b038111156112c457600080fd5b6112d08682850161113f565b610100830152506101208201516001600160401b038111156112f157600080fd5b6112fd8682850161111f565b61012083015250949350505050565b60008060006060848603121561132157600080fd5b835161132c81610d83565b6020850151604086015191945092506001600160401b0381111561134f57600080fd5b8401601f8101861361136057600080fd5b61136f868251602084016110a9565b9150509250925092565b60208082526019908201527f426f756e7479486f6f6b2f6e6f742d617574686f72697a656400000000000000604082015260600190565b8181038181111561090657634e487b7160e01b600052601160045260246000fdfea2646970667358221220373c230245772d902df1cadbde31bc102002388c9c8e550d9ffa9a18c04a55fd64736f6c634300081c0033000000000000000000000000fb9b0ead260b54df38868d2ee52979eb71f24d50000000000000000000000000878c92fd89d8e0b93dc0a3c907a2adc7577e39c5",
        "nonce": "0x79",
        "chainId": "0xaa36a7"
      },
      "additionalContracts": [],
      "isFixedGasLimit": false
    },
    {
      "hash": "0x9b2e1f96ddddeca766d46f310ec7440fec0a908e1f80b46456f08f842645c194",
      "transactionType": "CALL",
      "contractName": null,
      "contractAddress": "0x878c92fd89d8e0b93dc0a3c907a2adc7577e39c5",
      "function": "register((address,bool,uint8,uint64,address,uint64,string),bytes)",
      "arguments": [
        "(0xdC233b5368d39FED2EB99EE4dc225882D35ff4B6, true, 0, 0, 0x54882Ce2948cfF131D3462ef7521060D9ac4E436, 1731804648, {\\\"name\\\":\\\"bounty\\\",\\\"description\\\":\\\"Bug bounty for smart contract\\\",\\\"data\\\":[{\\\"name\\\":\\\"contractAddress\\\",\\\"type\\\":\\\"address\\\"},{\\\"name\\\":\\\"chainId\\\",\\\"type\\\":\\\"uint256\\\"},{\\\"name\\\":\\\"title\\\",\\\"type\\\":\\\"string\\\"}]})",
        "0x"
      ],
      "transaction": {
        "from": "0xdc233b5368d39fed2eb99ee4dc225882d35ff4b6",
        "to": "0x878c92fd89d8e0b93dc0a3c907a2adc7577e39c5",
        "gas": "0x52846",
        "value": "0x0",
        "input": "0xe117a86100000000000000000000000000000000000000000000000000000000000000400000000000000000000000000000000000000000000000000000000000000200000000000000000000000000dc233b5368d39fed2eb99ee4dc225882d35ff4b600000000000000000000000000000000000000000000000000000000000000010000000000000000000000000000000000000000000000000000000000000000000000000000000000000000000000000000000000000000000000000000000000000000000000000000000054882ce2948cff131d3462ef7521060d9ac4e4360000000000000000000000000000000000000000000000000000000067393de800000000000000000000000000000000000000000000000000000000000000e000000000000000000000000000000000000000000000000000000000000000b97b226e616d65223a22626f756e7479222c226465736372697074696f6e223a2242756720626f756e747920666f7220736d61727420636f6e7472616374222c2264617461223a5b7b226e616d65223a22636f6e747261637441646472657373222c2274797065223a2261646472657373227d2c7b226e616d65223a22636861696e4964222c2274797065223a2275696e74323536227d2c7b226e616d65223a227469746c65222c2274797065223a22737472696e67227d5d7d000000000000000000000000000000000000000000000000000000000000000000000000000000",
        "nonce": "0x7a",
        "chainId": "0xaa36a7"
      },
      "additionalContracts": [],
      "isFixedGasLimit": false
    },
    {
      "hash": "0xbcf1363e07a547e0a4a27e4b47e1128b2698e74c1828009d84e52df7f8c8399b",
      "transactionType": "CREATE",
      "contractName": "ReportHook",
      "contractAddress": "0x6ad089a5328f89b9631fa67b7fcc1dd80a262b88",
      "function": null,
      "arguments": [
        "0xFb9B0ead260b54DF38868D2EE52979eb71F24d50",
        "0x878c92FD89d8E0B93Dc0a3c907A2adc7577e39c5"
      ],
      "transaction": {
        "from": "0xdc233b5368d39fed2eb99ee4dc225882d35ff4b6",
        "gas": "0xddd54",
        "value": "0x0",
        "input": "0x60c060405234801561001057600080fd5b50604051610c31380380610c3183398101604081905261002f91610076565b600080546001600160a01b0319166001600160a01b0392831690811790915560a052166080526100a9565b80516001600160a01b038116811461007157600080fd5b919050565b6000806040838503121561008957600080fd5b6100928361005a565b91506100a06020840161005a565b90509250929050565b60805160a051610b416100f06000396000818161014e01528181610437015261053c01526000818160cd015281816102280152818161033101526105cc0152610b416000f3fe6080604052600436106100865760003560e01c8063e1dadf3b11610059578063e1dadf3b1461013c578063e33361f414610170578063e830b5c714610185578063f851a440146101a9578063f8895cc8146101c957600080fd5b806306fdde031461008b57806317095529146100bb5780633398b4ed146101075780634466507a1461011c575b600080fd5b34801561009757600080fd5b506100a8651c995c1bdc9d60d21b81565b6040519081526020015b60405180910390f35b3480156100c757600080fd5b506100ef7f000000000000000000000000000000000000000000000000000000000000000081565b6040516001600160a01b0390911681526020016100b2565b61011a6101153660046106e1565b610208565b005b34801561012857600080fd5b5061011a61013736600461075c565b610311565b34801561014857600080fd5b506100ef7f000000000000000000000000000000000000000000000000000000000000000081565b61011a61017e3660046106e1565b5050505050565b34801561019157600080fd5b5061011a6101a036600461075c565b50505050505050565b3480156101b557600080fd5b506000546100ef906001600160a01b031681565b3480156101d557600080fd5b506000546101f090600160a01b90046001600160401b031681565b6040516001600160401b0390911681526020016100b2565b604051630fc9564d60e41b8152651c995c1bdc9d60d21b600482015284907f00000000000000000000000000000000000000000000000000000000000000006001600160a01b03169063fc9564d090602401602060405180830381865afa158015610277573d6000803e3d6000fd5b505050506040513d601f19601f8201168201806040525081019061029b9190610803565b6001600160401b0316816001600160401b0316146103005760405162461bcd60e51b815260206004820152601a60248201527f5265706f7274486f6f6b2f77726f6e672d736368656d612d696400000000000060448201526064015b60405180910390fd5b61030984610417565b505050505050565b604051630fc9564d60e41b8152651c995c1bdc9d60d21b600482015286907f00000000000000000000000000000000000000000000000000000000000000006001600160a01b03169063fc9564d090602401602060405180830381865afa158015610380573d6000803e3d6000fd5b505050506040513d601f19601f820116820180604052508101906103a49190610803565b6001600160401b0316816001600160401b0316146104045760405162461bcd60e51b815260206004820152601a60248201527f5265706f7274486f6f6b2f77726f6e672d736368656d612d696400000000000060448201526064016102f7565b61040d86610417565b5050505050505050565b60405162c44a5160e71b81526001600160401b03821660048201526000907f00000000000000000000000000000000000000000000000000000000000000006001600160a01b031690636225288090602401600060405180830381865afa158015610486573d6000803e3d6000fd5b505050506040513d6000823e601f3d908101601f191682016040526104ae91908101906109e4565b90506104bd8160200151610512565b151560011461050e5760405162461bcd60e51b815260206004820152601b60248201527f5265706f7274486f6f6b2f626f756e74792d6e6f742d6578697374000000000060448201526064016102f7565b5050565b60405162c44a5160e71b81526001600160401b038216600482015260009081906001600160a01b037f00000000000000000000000000000000000000000000000000000000000000001690636225288090602401600060405180830381865afa158015610583573d6000803e3d6000fd5b505050506040513d6000823e601f3d908101601f191682016040526105ab91908101906109e4565b604051630fc9564d60e41b815265626f756e747960d01b60048201529091507f00000000000000000000000000000000000000000000000000000000000000006001600160a01b03169063fc9564d090602401602060405180830381865afa15801561061b573d6000803e3d6000fd5b505050506040513d601f19601f8201168201806040525081019061063f9190610803565b6001600160401b031681600001516001600160401b031614801561066557508060e00151155b9392505050565b6001600160a01b038116811461068157600080fd5b50565b6001600160401b038116811461068157600080fd5b60008083601f8401126106ab57600080fd5b5081356001600160401b038111156106c257600080fd5b6020830191508360208285010111156106da57600080fd5b9250929050565b6000806000806000608086880312156106f957600080fd5b85356107048161066c565b9450602086013561071481610684565b9350604086013561072481610684565b925060608601356001600160401b0381111561073f57600080fd5b61074b88828901610699565b969995985093965092949392505050565b600080600080600080600060c0888a03121561077757600080fd5b87356107828161066c565b9650602088013561079281610684565b955060408801356107a281610684565b945060608801356107b28161066c565b93506080880135925060a08801356001600160401b038111156107d457600080fd5b6107e08a828b01610699565b989b979a50959850939692959293505050565b80516107fe81610684565b919050565b60006020828403121561081557600080fd5b815161066581610684565b634e487b7160e01b600052604160045260246000fd5b60405161014081016001600160401b038111828210171561085957610859610820565b60405290565b604051601f8201601f191681016001600160401b038111828210171561088757610887610820565b604052919050565b80516107fe8161066c565b8051600481106107fe57600080fd5b805180151581146107fe57600080fd5b600082601f8301126108ca57600080fd5b81516001600160401b038111156108e3576108e3610820565b6108f6601f8201601f191660200161085f565b81815284602083860101111561090b57600080fd5b60005b8281101561092a5760208186018101518383018201520161090e565b506000918101602001919091529392505050565b600082601f83011261094f57600080fd5b81516001600160401b0381111561096857610968610820565b8060051b6109786020820161085f565b9182526020818501810192908101908684111561099457600080fd5b6020860192505b838310156109da5782516001600160401b038111156109b957600080fd5b6109c8886020838a01016108b9565b8352506020928301929091019061099b565b9695505050505050565b6000602082840312156109f657600080fd5b81516001600160401b03811115610a0c57600080fd5b82016101408185031215610a1f57600080fd5b610a27610836565b610a30826107f3565b8152610a3e602083016107f3565b6020820152610a4f604083016107f3565b6040820152610a60606083016107f3565b6060820152610a716080830161088f565b6080820152610a8260a083016107f3565b60a0820152610a9360c0830161089a565b60c0820152610aa460e083016108a9565b60e08201526101008201516001600160401b03811115610ac357600080fd5b610acf8682850161093e565b610100830152506101208201516001600160401b03811115610af057600080fd5b610afc868285016108b9565b6101208301525094935050505056fea26469706673582212208246e2e1d610ecad0a4fd42436ae7074d0700fd8c0a1737f867baa72132c4e1764736f6c634300081c0033000000000000000000000000fb9b0ead260b54df38868d2ee52979eb71f24d50000000000000000000000000878c92fd89d8e0b93dc0a3c907a2adc7577e39c5",
        "nonce": "0x7b",
        "chainId": "0xaa36a7"
      },
      "additionalContracts": [],
      "isFixedGasLimit": false
    },
    {
      "hash": "0x8db9e172d359c38efc19a436da9be42a41a0a45152c88a572446e562a17f23aa",
      "transactionType": "CALL",
      "contractName": null,
      "contractAddress": "0x878c92fd89d8e0b93dc0a3c907a2adc7577e39c5",
      "function": "register((address,bool,uint8,uint64,address,uint64,string),bytes)",
      "arguments": [
        "(0xdC233b5368d39FED2EB99EE4dc225882D35ff4B6, true, 0, 0, 0x6AD089a5328f89B9631Fa67B7FCC1DD80a262B88, 1731804648, {\\\"name\\\":\\\"report\\\",\\\"description\\\":\\\"Bug report for bounty\\\",\\\"data\\\":[{\\\"name\\\":\\\"finding\\\",\\\"type\\\":\\\"string\\\"}]})",
        "0x"
      ],
      "transaction": {
        "from": "0xdc233b5368d39fed2eb99ee4dc225882d35ff4b6",
        "to": "0x878c92fd89d8e0b93dc0a3c907a2adc7577e39c5",
        "gas": "0x431dd",
        "value": "0x0",
        "input": "0xe117a861000000000000000000000000000000000000000000000000000000000000004000000000000000000000000000000000000000000000000000000000000001c0000000000000000000000000dc233b5368d39fed2eb99ee4dc225882d35ff4b60000000000000000000000000000000000000000000000000000000000000001000000000000000000000000000000000000000000000000000000000000000000000000000000000000000000000000000000000000000000000000000000000000000000000000000000006ad089a5328f89b9631fa67b7fcc1dd80a262b880000000000000000000000000000000000000000000000000000000067393de800000000000000000000000000000000000000000000000000000000000000e000000000000000000000000000000000000000000000000000000000000000637b226e616d65223a227265706f7274222c226465736372697074696f6e223a22427567207265706f727420666f7220626f756e7479222c2264617461223a5b7b226e616d65223a2266696e64696e67222c2274797065223a22737472696e67227d5d7d00000000000000000000000000000000000000000000000000000000000000000000000000000000000000000000000000000000000000000000000000",
        "nonce": "0x7c",
        "chainId": "0xaa36a7"
      },
      "additionalContracts": [],
      "isFixedGasLimit": false
    },
    {
      "hash": "0x6c4112eff36620eb11c102db542dd1f6bffce781c999229e64f165e92cc68753",
      "transactionType": "CREATE",
      "contractName": "ReportStatusHook",
      "contractAddress": "0xbfec3d844853533093b3fa92a22ac5bea3c57650",
      "function": null,
      "arguments": [
        "0xFb9B0ead260b54DF38868D2EE52979eb71F24d50",
        "0x878c92FD89d8E0B93Dc0a3c907A2adc7577e39c5"
      ],
      "transaction": {
        "from": "0xdc233b5368d39fed2eb99ee4dc225882d35ff4b6",
        "gas": "0x166624",
        "value": "0x0",
        "input": "0x60c060405234801561001057600080fd5b5060405161142138038061142183398101604081905261002f91610076565b600080546001600160a01b0319166001600160a01b0392831690811790915560a052166080526100a9565b80516001600160a01b038116811461007157600080fd5b919050565b6000806040838503121561008957600080fd5b6100928361005a565b91506100a06020840161005a565b90509250929050565b60805160a05161130e610113600039600081816101bb015281816106100152818161074b0152818161093b0152610bfb01526000818160e9015281816102b3015281816103960152818161047201528181610544015281816107e30152610ae4015261130e6000f3fe60806040526004361061009c5760003560e01c8063e1dadf3b11610064578063e1dadf3b146101a9578063e33361f4146101dd578063e830b5c7146101f0578063f30b121e14610210578063f851a44014610246578063f8895cc81461026657600080fd5b806306fdde03146100a157806317095529146100d75780633398b4ed146101235780634466507a14610138578063d2da3b0e14610158575b600080fd5b3480156100ad57600080fd5b506100c46b7265706f727453746174757360a01b81565b6040519081526020015b60405180910390f35b3480156100e357600080fd5b5061010b7f000000000000000000000000000000000000000000000000000000000000000081565b6040516001600160a01b0390911681526020016100ce565b610136610131366004610e1f565b61028d565b005b34801561014457600080fd5b50610136610153366004610e9a565b610370565b34801561016457600080fd5b50610191610173366004610f31565b6001600160401b039081166000908152600160205260409020541690565b6040516001600160401b0390911681526020016100ce565b3480156101b557600080fd5b5061010b7f000000000000000000000000000000000000000000000000000000000000000081565b6101366101eb366004610e1f565b61044c565b3480156101fc57600080fd5b5061013661020b366004610e9a565b61051e565b34801561021c57600080fd5b5061019161022b366004610f31565b6001602052600090815260409020546001600160401b031681565b34801561025257600080fd5b5060005461010b906001600160a01b031681565b34801561027257600080fd5b5060005461019190600160a01b90046001600160401b031681565b604051630fc9564d60e41b81526b7265706f727453746174757360a01b600482015284907f00000000000000000000000000000000000000000000000000000000000000006001600160a01b03169063fc9564d090602401602060405180830381865afa158015610302573d6000803e3d6000fd5b505050506040513d601f19601f820116820180604052508101906103269190610f65565b6001600160401b0316816001600160401b03161461035f5760405162461bcd60e51b815260040161035690610f82565b60405180910390fd5b610368846105f0565b505050505050565b604051630fc9564d60e41b81526b7265706f727453746174757360a01b600482015286907f00000000000000000000000000000000000000000000000000000000000000006001600160a01b03169063fc9564d090602401602060405180830381865afa1580156103e5573d6000803e3d6000fd5b505050506040513d601f19601f820116820180604052508101906104099190610f65565b6001600160401b0316816001600160401b0316146104395760405162461bcd60e51b815260040161035690610f82565b610442866105f0565b5050505050505050565b604051630fc9564d60e41b81526b7265706f727453746174757360a01b600482015284907f00000000000000000000000000000000000000000000000000000000000000006001600160a01b03169063fc9564d090602401602060405180830381865afa1580156104c1573d6000803e3d6000fd5b505050506040513d601f19601f820116820180604052508101906104e59190610f65565b6001600160401b0316816001600160401b0316146105155760405162461bcd60e51b815260040161035690610f82565b61036884610bdb565b604051630fc9564d60e41b81526b7265706f727453746174757360a01b600482015286907f00000000000000000000000000000000000000000000000000000000000000006001600160a01b03169063fc9564d090602401602060405180830381865afa158015610593573d6000803e3d6000fd5b505050506040513d601f19601f820116820180604052508101906105b79190610f65565b6001600160401b0316816001600160401b0316146105e75760405162461bcd60e51b815260040161035690610f82565b61044286610bdb565b60405162c44a5160e71b81526001600160401b03821660048201526000907f00000000000000000000000000000000000000000000000000000000000000006001600160a01b031690636225288090602401600060405180830381865afa15801561065f573d6000803e3d6000fd5b505050506040513d6000823e601f3d908101601f19168201604052610687919081019061117b565b905060008160200151905060008261012001518060200190518101906106ad91906112a2565b6001600160401b03808416600090815260016020526040902054919250161561072b5760405162461bcd60e51b815260206004820152602a60248201527f5265706f7274537461747573486f6f6b2f7265706f72742d616c72656164792d6044820152696861732d73746174757360b01b6064820152608401610356565b60405162c44a5160e71b81526001600160401b03831660048201526000907f00000000000000000000000000000000000000000000000000000000000000006001600160a01b031690636225288090602401600060405180830381865afa15801561079a573d6000803e3d6000fd5b505050506040513d6000823e601f3d908101601f191682016040526107c2919081019061117b565b604051630fc9564d60e41b8152651c995c1bdc9d60d21b60048201529091507f00000000000000000000000000000000000000000000000000000000000000006001600160a01b03169063fc9564d090602401602060405180830381865afa158015610832573d6000803e3d6000fd5b505050506040513d601f19601f820116820180604052508101906108569190610f65565b6001600160401b031681600001516001600160401b0316146108c45760405162461bcd60e51b815260206004820152602160248201527f5265706f7274537461747573486f6f6b2f7265706f72742d6e6f742d657869736044820152601d60fa1b6064820152608401610356565b8060e00151156109165760405162461bcd60e51b815260206004820152601f60248201527f5265706f7274537461747573486f6f6b2f7265706f72742d7265766f6b6564006044820152606401610356565b602081015160405162c44a5160e71b81526001600160401b03821660048201526000907f00000000000000000000000000000000000000000000000000000000000000006001600160a01b031690636225288090602401600060405180830381865afa15801561098a573d6000803e3d6000fd5b505050506040513d6000823e601f3d908101601f191682016040526109b2919081019061117b565b90508060e0015115610a125760405162461bcd60e51b815260206004820152602360248201527f5265706f7274537461747573486f6f6b2f626f756e74792d696e6163746976616044820152621d195960ea1b6064820152608401610356565b80608001516001600160a01b031686608001516001600160a01b031614610a8e5760405162461bcd60e51b815260206004820152602a60248201527f5265706f7274537461747573486f6f6b2f756e617574686f72697a65642d626f6044820152693ab73a3c96b7bbb732b960b11b6064820152608401610356565b6001600160401b038581166000908152600160205260409020805467ffffffffffffffff19169189169190911790558315610bd257604051630d50262360e41b815265626f756e747960d01b60048201526000907f00000000000000000000000000000000000000000000000000000000000000006001600160a01b03169063d502623090602401602060405180830381865afa158015610b33573d6000803e3d6000fd5b505050506040513d601f19601f82011682018060405250810190610b5791906112bb565b60808501516040516390ffbd5360e01b81526001600160401b03861660048201526001600160a01b039182166024820152604481018890529192508216906390ffbd5390606401600060405180830381600087803b158015610bb857600080fd5b505af1158015610bcc573d6000803e3d6000fd5b50505050505b50505050505050565b60405162c44a5160e71b81526001600160401b03821660048201526000907f00000000000000000000000000000000000000000000000000000000000000006001600160a01b031690636225288090602401600060405180830381865afa158015610c4a573d6000803e3d6000fd5b505050506040513d6000823e601f3d908101601f19168201604052610c72919081019061117b565b90506000816101200151806020019051810190610c8f91906112a2565b6020808401516001600160401b03908116600090815260019092526040822054929350919091169003610d1b5760405162461bcd60e51b815260206004820152602e60248201527f5265706f7274537461747573486f6f6b2f6174746573746174696f6e2d69642d60448201526d0c8decae65adcdee85adac2e8c6d60931b6064820152608401610356565b8015610d7a5760405162461bcd60e51b815260206004820152602860248201527f5265706f7274537461747573486f6f6b2f7265706f72742d616c72656164792d6044820152671c995dd85c99195960c21b6064820152608401610356565b506020908101516001600160401b03166000908152600190915260409020805467ffffffffffffffff1916905550565b6001600160a01b0381168114610dbf57600080fd5b50565b6001600160401b0381168114610dbf57600080fd5b60008083601f840112610de957600080fd5b5081356001600160401b03811115610e0057600080fd5b602083019150836020828501011115610e1857600080fd5b9250929050565b600080600080600060808688031215610e3757600080fd5b8535610e4281610daa565b94506020860135610e5281610dc2565b93506040860135610e6281610dc2565b925060608601356001600160401b03811115610e7d57600080fd5b610e8988828901610dd7565b969995985093965092949392505050565b600080600080600080600060c0888a031215610eb557600080fd5b8735610ec081610daa565b96506020880135610ed081610dc2565b95506040880135610ee081610dc2565b94506060880135610ef081610daa565b93506080880135925060a08801356001600160401b03811115610f1257600080fd5b610f1e8a828b01610dd7565b989b979a50959850939692959293505050565b600060208284031215610f4357600080fd5b8135610f4e81610dc2565b9392505050565b8051610f6081610dc2565b919050565b600060208284031215610f7757600080fd5b8151610f4e81610dc2565b6020808252818101527f5265706f7274537461747573486f6f6b2f77726f6e672d736368656d612d6964604082015260600190565b634e487b7160e01b600052604160045260246000fd5b60405161014081016001600160401b0381118282101715610ff057610ff0610fb7565b60405290565b604051601f8201601f191681016001600160401b038111828210171561101e5761101e610fb7565b604052919050565b8051610f6081610daa565b805160048110610f6057600080fd5b80518015158114610f6057600080fd5b600082601f83011261106157600080fd5b81516001600160401b0381111561107a5761107a610fb7565b61108d601f8201601f1916602001610ff6565b8181528460208386010111156110a257600080fd5b60005b828110156110c1576020818601810151838301820152016110a5565b506000918101602001919091529392505050565b600082601f8301126110e657600080fd5b81516001600160401b038111156110ff576110ff610fb7565b8060051b61110f60208201610ff6565b9182526020818501810192908101908684111561112b57600080fd5b6020860192505b838310156111715782516001600160401b0381111561115057600080fd5b61115f886020838a0101611050565b83525060209283019290910190611132565b9695505050505050565b60006020828403121561118d57600080fd5b81516001600160401b038111156111a357600080fd5b820161014081850312156111b657600080fd5b6111be610fcd565b6111c782610f55565b81526111d560208301610f55565b60208201526111e660408301610f55565b60408201526111f760608301610f55565b606082015261120860808301611026565b608082015261121960a08301610f55565b60a082015261122a60c08301611031565b60c082015261123b60e08301611040565b60e08201526101008201516001600160401b0381111561125a57600080fd5b611266868285016110d5565b610100830152506101208201516001600160401b0381111561128757600080fd5b61129386828501611050565b61012083015250949350505050565b6000602082840312156112b457600080fd5b5051919050565b6000602082840312156112cd57600080fd5b8151610f4e81610daa56fea264697066735822122074aff561c46287d2b3c5af6e2458bd195e0973e9586ae06bf001cad7d50f8a9b64736f6c634300081c0033000000000000000000000000fb9b0ead260b54df38868d2ee52979eb71f24d50000000000000000000000000878c92fd89d8e0b93dc0a3c907a2adc7577e39c5",
        "nonce": "0x7d",
        "chainId": "0xaa36a7"
      },
      "additionalContracts": [],
      "isFixedGasLimit": false
    },
    {
      "hash": "0x00cb33857b5c7961dbbbb114e78b6a86d982d6cc9941f6a1399e584c7973943e",
      "transactionType": "CALL",
      "contractName": null,
      "contractAddress": "0x878c92fd89d8e0b93dc0a3c907a2adc7577e39c5",
      "function": "register((address,bool,uint8,uint64,address,uint64,string),bytes)",
      "arguments": [
        "(0xdC233b5368d39FED2EB99EE4dc225882D35ff4B6, true, 0, 0, 0xbFEc3d844853533093B3Fa92A22Ac5bEa3C57650, 1731804648, {\\\"name\\\":\\\"reportStatus\\\",\\\"description\\\":\\\"Bug bounty report status\\\",\\\"data\\\":[{\\\"name\\\":\\\"amount\\\",\\\"type\\\":\\\"uint256\\\"}]})",
        "0x"
      ],
      "transaction": {
        "from": "0xdc233b5368d39fed2eb99ee4dc225882d35ff4b6",
        "to": "0x878c92fd89d8e0b93dc0a3c907a2adc7577e39c5",
        "gas": "0x471a7",
        "value": "0x0",
        "input": "0xe117a861000000000000000000000000000000000000000000000000000000000000004000000000000000000000000000000000000000000000000000000000000001c0000000000000000000000000dc233b5368d39fed2eb99ee4dc225882d35ff4b6000000000000000000000000000000000000000000000000000000000000000100000000000000000000000000000000000000000000000000000000000000000000000000000000000000000000000000000000000000000000000000000000000000000000000000000000bfec3d844853533093b3fa92a22ac5bea3c576500000000000000000000000000000000000000000000000000000000067393de800000000000000000000000000000000000000000000000000000000000000e0000000000000000000000000000000000000000000000000000000000000006c7b226e616d65223a227265706f7274537461747573222c226465736372697074696f6e223a2242756720626f756e7479207265706f727420737461747573222c2264617461223a5b7b226e616d65223a22616d6f756e74222c2274797065223a2275696e74323536227d5d7d00000000000000000000000000000000000000000000000000000000000000000000000000000000000000000000000000000000",
        "nonce": "0x7e",
        "chainId": "0xaa36a7"
      },
      "additionalContracts": [],
      "isFixedGasLimit": false
    },
    {
      "hash": "0xd50cb3e1230db5a52a4b7a4a6e9084ffc4036893b125af514360ef3187a80da0",
      "transactionType": "CALL",
      "contractName": "AuditManager",
      "contractAddress": "0xfb9b0ead260b54df38868d2ee52979eb71f24d50",
      "function": "setSchema(bytes32,uint64)",
      "arguments": [
        "0x626f756e74790000000000000000000000000000000000000000000000000000",
        "803"
      ],
      "transaction": {
        "from": "0xdc233b5368d39fed2eb99ee4dc225882d35ff4b6",
        "to": "0xfb9b0ead260b54df38868d2ee52979eb71f24d50",
        "gas": "0x253ee",
        "value": "0x0",
        "input": "0xe2788f49626f756e747900000000000000000000000000000000000000000000000000000000000000000000000000000000000000000000000000000000000000000323",
        "nonce": "0x7f",
        "chainId": "0xaa36a7"
      },
      "additionalContracts": [],
      "isFixedGasLimit": false
    },
    {
      "hash": "0xe58608347b716f84581386b8313214d6e0fd0d60d6089f05ffd049ce8b97a0e4",
      "transactionType": "CALL",
      "contractName": "AuditManager",
      "contractAddress": "0xfb9b0ead260b54df38868d2ee52979eb71f24d50",
      "function": "setSchema(bytes32,uint64)",
      "arguments": [
        "0x7265706f72740000000000000000000000000000000000000000000000000000",
        "804"
      ],
      "transaction": {
        "from": "0xdc233b5368d39fed2eb99ee4dc225882d35ff4b6",
        "to": "0xfb9b0ead260b54df38868d2ee52979eb71f24d50",
        "gas": "0x219cf",
        "value": "0x0",
        "input": "0xe2788f497265706f727400000000000000000000000000000000000000000000000000000000000000000000000000000000000000000000000000000000000000000324",
        "nonce": "0x80",
        "chainId": "0xaa36a7"
      },
      "additionalContracts": [],
      "isFixedGasLimit": false
    },
    {
      "hash": "0xf6a79ca124d2ca1d9b49ae7445c8ae031c5c701611f6d373e539ccdb74378154",
      "transactionType": "CALL",
      "contractName": "AuditManager",
      "contractAddress": "0xfb9b0ead260b54df38868d2ee52979eb71f24d50",
      "function": "setSchema(bytes32,uint64)",
      "arguments": [
        "0x7265706f72745374617475730000000000000000000000000000000000000000",
        "805"
      ],
      "transaction": {
        "from": "0xdc233b5368d39fed2eb99ee4dc225882d35ff4b6",
        "to": "0xfb9b0ead260b54df38868d2ee52979eb71f24d50",
        "gas": "0x21a33",
        "value": "0x0",
        "input": "0xe2788f497265706f727453746174757300000000000000000000000000000000000000000000000000000000000000000000000000000000000000000000000000000325",
        "nonce": "0x81",
        "chainId": "0xaa36a7"
      },
      "additionalContracts": [],
      "isFixedGasLimit": false
    },
    {
      "hash": "0xfe7a8d5ef8313fc0e7d463ab776faa49b1f69bdc016d4ba6715a28e1ff22f328",
      "transactionType": "CALL",
      "contractName": null,
      "contractAddress": "0x54882ce2948cff131d3462ef7521060d9ac4e436",
      "function": "rely(address)",
      "arguments": [
        "0xbFEc3d844853533093B3Fa92A22Ac5bEa3C57650"
      ],
      "transaction": {
        "from": "0xdc233b5368d39fed2eb99ee4dc225882d35ff4b6",
        "to": "0x54882ce2948cff131d3462ef7521060d9ac4e436",
        "gas": "0xf96e",
        "value": "0x0",
        "input": "0x65fae35e000000000000000000000000bfec3d844853533093b3fa92a22ac5bea3c57650",
        "nonce": "0x82",
        "chainId": "0xaa36a7"
      },
      "additionalContracts": [],
      "isFixedGasLimit": false
    }
  ],
  "receipts": [
    {
      "status": "0x1",
      "cumulativeGasUsed": "0x10f33c7",
      "logs": [],
      "logsBloom": "0x00000000000000000000000000000000000000000000000000000000000000000000000000000000000000000000000000000000000000000000000000000000000000000000000000000000000000000000000000000000000000000000000000000000000000000000000000000000000000000000000000000000000000000000000000000000000000000000000000000000000000000000000000000000000000000000000000000000000000000000000000000000000000000000000000000000000000000000000000000000000000000000000000000000000000000000000000000000000000000000000000000000000000000000000000000000",
      "type": "0x2",
      "transactionHash": "0xe6118a8bdd49208983c703fee95e340f14c2cac675c70838daa62e5691b18dfe",
      "transactionIndex": "0x4f",
      "blockHash": "0x58adf15a45321091fe956b4d4bf0ded06c10f27933c1471fdbc8d4397662c6f6",
      "blockNumber": "0x6c3815",
      "gasUsed": "0x6c0a4",
      "effectiveGasPrice": "0x25e489",
      "from": "0xdc233b5368d39fed2eb99ee4dc225882d35ff4b6",
      "to": null,
      "contractAddress": "0xfb9b0ead260b54df38868d2ee52979eb71f24d50"
    },
    {
      "status": "0x1",
      "cumulativeGasUsed": "0x1219edb",
      "logs": [],
      "logsBloom": "0x00000000000000000000000000000000000000000000000000000000000000000000000000000000000000000000000000000000000000000000000000000000000000000000000000000000000000000000000000000000000000000000000000000000000000000000000000000000000000000000000000000000000000000000000000000000000000000000000000000000000000000000000000000000000000000000000000000000000000000000000000000000000000000000000000000000000000000000000000000000000000000000000000000000000000000000000000000000000000000000000000000000000000000000000000000000",
      "type": "0x2",
      "transactionHash": "0x12d4a79627c2a174cbafee6c7a748ab6b31b31bad5b506df73d9831f3f241091",
      "transactionIndex": "0x50",
      "blockHash": "0x58adf15a45321091fe956b4d4bf0ded06c10f27933c1471fdbc8d4397662c6f6",
      "blockNumber": "0x6c3815",
      "gasUsed": "0x126b14",
      "effectiveGasPrice": "0x25e489",
      "from": "0xdc233b5368d39fed2eb99ee4dc225882d35ff4b6",
      "to": null,
      "contractAddress": "0x54882ce2948cff131d3462ef7521060d9ac4e436"
    },
    {
      "status": "0x1",
      "cumulativeGasUsed": "0x1255ab7",
      "logs": [
        {
          "address": "0x878c92fd89d8e0b93dc0a3c907a2adc7577e39c5",
          "topics": [
            "0xd0f9818d35b9c7d941f89e81a08a7f4761384ae32aeaf4a913b94319a321e7ff"
          ],
          "data": "0x0000000000000000000000000000000000000000000000000000000000000323",
          "blockHash": "0x58adf15a45321091fe956b4d4bf0ded06c10f27933c1471fdbc8d4397662c6f6",
          "blockNumber": "0x6c3815",
          "transactionHash": "0x9b2e1f96ddddeca766d46f310ec7440fec0a908e1f80b46456f08f842645c194",
          "transactionIndex": "0x51",
          "logIndex": "0xa6",
          "removed": false
        }
      ],
      "logsBloom": "0x00000000000000000000000000000000000000000000000000000000000000000000000000000000000000000002000000000000000000000000000000000000000000000000000000000000000000000000000000000000000000000000000000000000000000000000000000000000000000000000000000000000000000000000000000000000000000000000000000000000000000000000000000020000000000000000000000000000000000000000000000000000000000000001040000000000000000000000000000000000000000000000000000000000000000000000000000000000000000000000000000000000040000000200000000000000",
      "type": "0x2",
      "transactionHash": "0x9b2e1f96ddddeca766d46f310ec7440fec0a908e1f80b46456f08f842645c194",
      "transactionIndex": "0x51",
      "blockHash": "0x58adf15a45321091fe956b4d4bf0ded06c10f27933c1471fdbc8d4397662c6f6",
      "blockNumber": "0x6c3815",
      "gasUsed": "0x3bbdc",
      "effectiveGasPrice": "0x25e489",
      "from": "0xdc233b5368d39fed2eb99ee4dc225882d35ff4b6",
      "to": "0x878c92fd89d8e0b93dc0a3c907a2adc7577e39c5",
      "contractAddress": null
    },
    {
      "status": "0x1",
      "cumulativeGasUsed": "0x13005c0",
      "logs": [],
      "logsBloom": "0x00000000000000000000000000000000000000000000000000000000000000000000000000000000000000000000000000000000000000000000000000000000000000000000000000000000000000000000000000000000000000000000000000000000000000000000000000000000000000000000000000000000000000000000000000000000000000000000000000000000000000000000000000000000000000000000000000000000000000000000000000000000000000000000000000000000000000000000000000000000000000000000000000000000000000000000000000000000000000000000000000000000000000000000000000000000",
      "type": "0x2",
      "transactionHash": "0xbcf1363e07a547e0a4a27e4b47e1128b2698e74c1828009d84e52df7f8c8399b",
      "transactionIndex": "0x52",
      "blockHash": "0x58adf15a45321091fe956b4d4bf0ded06c10f27933c1471fdbc8d4397662c6f6",
      "blockNumber": "0x6c3815",
      "gasUsed": "0xaab09",
      "effectiveGasPrice": "0x25e489",
      "from": "0xdc233b5368d39fed2eb99ee4dc225882d35ff4b6",
      "to": null,
      "contractAddress": "0x6ad089a5328f89b9631fa67b7fcc1dd80a262b88"
    },
    {
      "status": "0x1",
      "cumulativeGasUsed": "0x1330f36",
      "logs": [
        {
          "address": "0x878c92fd89d8e0b93dc0a3c907a2adc7577e39c5",
          "topics": [
            "0xd0f9818d35b9c7d941f89e81a08a7f4761384ae32aeaf4a913b94319a321e7ff"
          ],
          "data": "0x0000000000000000000000000000000000000000000000000000000000000324",
          "blockHash": "0x58adf15a45321091fe956b4d4bf0ded06c10f27933c1471fdbc8d4397662c6f6",
          "blockNumber": "0x6c3815",
          "transactionHash": "0x8db9e172d359c38efc19a436da9be42a41a0a45152c88a572446e562a17f23aa",
          "transactionIndex": "0x53",
          "logIndex": "0xa7",
          "removed": false
        }
      ],
      "logsBloom": "0x00000000000000000000000000000000000000000000000000000000000000000000000000000000000000000002000000000000000000000000000000000000000000000000000000000000000000000000000000000000000000000000000000000000000000000000000000000000000000000000000000000000000000000000000000000000000000000000000000000000000000000000000000020000000000000000000000000000000000000000000000000000000000000001040000000000000000000000000000000000000000000000000000000000000000000000000000000000000000000000000000000000040000000200000000000000",
      "type": "0x2",
      "transactionHash": "0x8db9e172d359c38efc19a436da9be42a41a0a45152c88a572446e562a17f23aa",
      "transactionIndex": "0x53",
      "blockHash": "0x58adf15a45321091fe956b4d4bf0ded06c10f27933c1471fdbc8d4397662c6f6",
      "blockNumber": "0x6c3815",
      "gasUsed": "0x30976",
      "effectiveGasPrice": "0x25e489",
      "from": "0xdc233b5368d39fed2eb99ee4dc225882d35ff4b6",
      "to": "0x878c92fd89d8e0b93dc0a3c907a2adc7577e39c5",
      "contractAddress": null
    },
    {
      "status": "0x1",
      "cumulativeGasUsed": "0x1444b5f",
      "logs": [],
      "logsBloom": "0x00000000000000000000000000000000000000000000000000000000000000000000000000000000000000000000000000000000000000000000000000000000000000000000000000000000000000000000000000000000000000000000000000000000000000000000000000000000000000000000000000000000000000000000000000000000000000000000000000000000000000000000000000000000000000000000000000000000000000000000000000000000000000000000000000000000000000000000000000000000000000000000000000000000000000000000000000000000000000000000000000000000000000000000000000000000",
      "type": "0x2",
      "transactionHash": "0x6c4112eff36620eb11c102db542dd1f6bffce781c999229e64f165e92cc68753",
      "transactionIndex": "0x54",
      "blockHash": "0x58adf15a45321091fe956b4d4bf0ded06c10f27933c1471fdbc8d4397662c6f6",
      "blockNumber": "0x6c3815",
      "gasUsed": "0x113c29",
      "effectiveGasPrice": "0x25e489",
      "from": "0xdc233b5368d39fed2eb99ee4dc225882d35ff4b6",
      "to": null,
      "contractAddress": "0xbfec3d844853533093b3fa92a22ac5bea3c57650"
    },
    {
      "status": "0x1",
      "cumulativeGasUsed": "0x1475541",
      "logs": [
        {
          "address": "0x878c92fd89d8e0b93dc0a3c907a2adc7577e39c5",
          "topics": [
            "0xd0f9818d35b9c7d941f89e81a08a7f4761384ae32aeaf4a913b94319a321e7ff"
          ],
          "data": "0x0000000000000000000000000000000000000000000000000000000000000325",
          "blockHash": "0x58adf15a45321091fe956b4d4bf0ded06c10f27933c1471fdbc8d4397662c6f6",
          "blockNumber": "0x6c3815",
          "transactionHash": "0x00cb33857b5c7961dbbbb114e78b6a86d982d6cc9941f6a1399e584c7973943e",
          "transactionIndex": "0x55",
          "logIndex": "0xa8",
          "removed": false
        }
      ],
      "logsBloom": "0x00000000000000000000000000000000000000000000000000000000000000000000000000000000000000000002000000000000000000000000000000000000000000000000000000000000000000000000000000000000000000000000000000000000000000000000000000000000000000000000000000000000000000000000000000000000000000000000000000000000000000000000000000020000000000000000000000000000000000000000000000000000000000000001040000000000000000000000000000000000000000000000000000000000000000000000000000000000000000000000000000000000040000000200000000000000",
      "type": "0x2",
      "transactionHash": "0x00cb33857b5c7961dbbbb114e78b6a86d982d6cc9941f6a1399e584c7973943e",
      "transactionIndex": "0x55",
      "blockHash": "0x58adf15a45321091fe956b4d4bf0ded06c10f27933c1471fdbc8d4397662c6f6",
      "blockNumber": "0x6c3815",
      "gasUsed": "0x309e2",
      "effectiveGasPrice": "0x25e489",
      "from": "0xdc233b5368d39fed2eb99ee4dc225882d35ff4b6",
      "to": "0x878c92fd89d8e0b93dc0a3c907a2adc7577e39c5",
      "contractAddress": null
    },
    {
      "status": "0x1",
      "cumulativeGasUsed": "0x148ecbb",
      "logs": [],
      "logsBloom": "0x00000000000000000000000000000000000000000000000000000000000000000000000000000000000000000000000000000000000000000000000000000000000000000000000000000000000000000000000000000000000000000000000000000000000000000000000000000000000000000000000000000000000000000000000000000000000000000000000000000000000000000000000000000000000000000000000000000000000000000000000000000000000000000000000000000000000000000000000000000000000000000000000000000000000000000000000000000000000000000000000000000000000000000000000000000000",
      "type": "0x2",
      "transactionHash": "0xd50cb3e1230db5a52a4b7a4a6e9084ffc4036893b125af514360ef3187a80da0",
      "transactionIndex": "0x56",
      "blockHash": "0x58adf15a45321091fe956b4d4bf0ded06c10f27933c1471fdbc8d4397662c6f6",
      "blockNumber": "0x6c3815",
      "gasUsed": "0x1977a",
      "effectiveGasPrice": "0x25e489",
      "from": "0xdc233b5368d39fed2eb99ee4dc225882d35ff4b6",
      "to": "0xfb9b0ead260b54df38868d2ee52979eb71f24d50",
      "contractAddress": null
    },
    {
      "status": "0x1",
      "cumulativeGasUsed": "0x14a7219",
      "logs": [],
      "logsBloom": "0x00000000000000000000000000000000000000000000000000000000000000000000000000000000000000000000000000000000000000000000000000000000000000000000000000000000000000000000000000000000000000000000000000000000000000000000000000000000000000000000000000000000000000000000000000000000000000000000000000000000000000000000000000000000000000000000000000000000000000000000000000000000000000000000000000000000000000000000000000000000000000000000000000000000000000000000000000000000000000000000000000000000000000000000000000000000",
      "type": "0x2",
      "transactionHash": "0xe58608347b716f84581386b8313214d6e0fd0d60d6089f05ffd049ce8b97a0e4",
      "transactionIndex": "0x57",
      "blockHash": "0x58adf15a45321091fe956b4d4bf0ded06c10f27933c1471fdbc8d4397662c6f6",
      "blockNumber": "0x6c3815",
      "gasUsed": "0x1855e",
      "effectiveGasPrice": "0x25e489",
      "from": "0xdc233b5368d39fed2eb99ee4dc225882d35ff4b6",
      "to": "0xfb9b0ead260b54df38868d2ee52979eb71f24d50",
      "contractAddress": null
    },
    {
      "status": "0x1",
      "cumulativeGasUsed": "0x14bf7bf",
      "logs": [],
      "logsBloom": "0x00000000000000000000000000000000000000000000000000000000000000000000000000000000000000000000000000000000000000000000000000000000000000000000000000000000000000000000000000000000000000000000000000000000000000000000000000000000000000000000000000000000000000000000000000000000000000000000000000000000000000000000000000000000000000000000000000000000000000000000000000000000000000000000000000000000000000000000000000000000000000000000000000000000000000000000000000000000000000000000000000000000000000000000000000000000",
      "type": "0x2",
      "transactionHash": "0xf6a79ca124d2ca1d9b49ae7445c8ae031c5c701611f6d373e539ccdb74378154",
      "transactionIndex": "0x58",
      "blockHash": "0x58adf15a45321091fe956b4d4bf0ded06c10f27933c1471fdbc8d4397662c6f6",
      "blockNumber": "0x6c3815",
      "gasUsed": "0x185a6",
      "effectiveGasPrice": "0x25e489",
      "from": "0xdc233b5368d39fed2eb99ee4dc225882d35ff4b6",
      "to": "0xfb9b0ead260b54df38868d2ee52979eb71f24d50",
      "contractAddress": null
    },
    {
      "status": "0x1",
      "cumulativeGasUsed": "0x14e105f",
      "logs": [],
      "logsBloom": "0x00000000000000000000000000000000000000000000000000000000000000000000000000000000000000000000000000000000000000000000000000000000000000000000000000000000000000000000000000000000000000000000000000000000000000000000000000000000000000000000000000000000000000000000000000000000000000000000000000000000000000000000000000000000000000000000000000000000000000000000000000000000000000000000000000000000000000000000000000000000000000000000000000000000000000000000000000000000000000000000000000000000000000000000000000000000",
      "type": "0x2",
      "transactionHash": "0xfe7a8d5ef8313fc0e7d463ab776faa49b1f69bdc016d4ba6715a28e1ff22f328",
      "transactionIndex": "0x5a",
      "blockHash": "0x58adf15a45321091fe956b4d4bf0ded06c10f27933c1471fdbc8d4397662c6f6",
      "blockNumber": "0x6c3815",
      "gasUsed": "0xb496",
      "effectiveGasPrice": "0x25e489",
      "from": "0xdc233b5368d39fed2eb99ee4dc225882d35ff4b6",
      "to": "0x54882ce2948cff131d3462ef7521060d9ac4e436",
      "contractAddress": null
    }
  ],
  "libraries": [],
  "pending": [],
  "returns": {},
  "timestamp": 1731804801,
  "chain": 11155111,
  "commit": "7eb9c05"
}